{
  "_format": "hh-sol-artifact-1",
  "contractName": "HalalSupplyChain",
  "sourceName": "contracts/HalalSupplyChain.sol",
  "abi": [
    {
      "inputs": [],
      "stateMutability": "nonpayable",
      "type": "constructor"
    },
    {
      "anonymous": false,
      "inputs": [
        {
          "indexed": false,
          "internalType": "uint256",
          "name": "batchId",
          "type": "uint256"
        },
        {
          "indexed": false,
          "internalType": "string",
          "name": "name",
          "type": "string"
        },
        {
          "indexed": false,
          "internalType": "uint256",
          "name": "count",
          "type": "uint256"
        },
        {
          "indexed": false,
          "internalType": "address",
          "name": "producer",
          "type": "address"
        }
      ],
      "name": "BatchCreated",
      "type": "event"
    },
    {
      "anonymous": false,
      "inputs": [
        {
          "indexed": false,
          "internalType": "uint256",
          "name": "batchId",
          "type": "uint256"
        },
        {
          "indexed": false,
          "internalType": "enum HalalSupplyChain.BatchStatus",
          "name": "newStatus",
          "type": "uint8"
        }
      ],
      "name": "BatchStatusUpdated",
      "type": "event"
    },
    {
      "anonymous": false,
      "inputs": [
        {
          "indexed": false,
          "internalType": "uint256",
          "name": "batchId",
          "type": "uint256"
        },
        {
          "indexed": false,
          "internalType": "string",
          "name": "certificateHash",
          "type": "string"
        },
        {
          "indexed": false,
          "internalType": "bool",
          "name": "isHalal",
          "type": "bool"
        }
      ],
      "name": "HalalCertificateSet",
      "type": "event"
    },
    {
      "anonymous": false,
      "inputs": [
        {
          "indexed": false,
          "internalType": "uint256",
          "name": "batchId",
          "type": "uint256"
        },
        {
          "indexed": false,
          "internalType": "address",
          "name": "from",
          "type": "address"
        },
        {
          "indexed": false,
          "internalType": "address",
          "name": "to",
          "type": "address"
        }
      ],
      "name": "OwnershipTransferred",
      "type": "event"
    },
    {
      "anonymous": false,
      "inputs": [
        {
          "indexed": true,
          "internalType": "address",
          "name": "account",
          "type": "address"
        },
        {
          "indexed": false,
          "internalType": "string",
          "name": "role",
          "type": "string"
        }
      ],
      "name": "RoleGranted",
      "type": "event"
    },
    {
      "anonymous": false,
      "inputs": [
        {
          "indexed": false,
          "internalType": "uint256",
          "name": "batchId",
          "type": "uint256"
        },
        {
          "indexed": false,
          "internalType": "bool",
          "name": "isHalal",
          "type": "bool"
        }
      ],
      "name": "SlaughterRecorded",
      "type": "event"
    },
    {
      "inputs": [],
      "name": "admin",
      "outputs": [
        {
          "internalType": "address",
          "name": "",
          "type": "address"
        }
      ],
      "stateMutability": "view",
      "type": "function"
    },
    {
      "inputs": [
        {
          "internalType": "string",
          "name": "name",
          "type": "string"
        }
      ],
      "name": "createBatch",
      "outputs": [
        {
          "internalType": "uint256",
          "name": "",
          "type": "uint256"
        }
      ],
      "stateMutability": "nonpayable",
      "type": "function"
    },
    {
      "inputs": [
        {
          "internalType": "uint256",
          "name": "batchId",
          "type": "uint256"
        }
      ],
      "name": "getBatch",
      "outputs": [
        {
          "components": [
            {
              "internalType": "uint256",
              "name": "id",
              "type": "uint256"
            },
            {
              "internalType": "string",
              "name": "name",
              "type": "string"
            },
            {
              "internalType": "uint256",
              "name": "nameCount",
              "type": "uint256"
            },
            {
              "internalType": "address",
              "name": "currentOwner",
              "type": "address"
            },
            {
              "internalType": "enum HalalSupplyChain.BatchStatus",
              "name": "status",
              "type": "uint8"
            },
            {
              "internalType": "string",
              "name": "certificateHash",
              "type": "string"
            }
          ],
          "internalType": "struct HalalSupplyChain.Batch",
          "name": "",
          "type": "tuple"
        }
      ],
      "stateMutability": "view",
      "type": "function"
    },
    {
      "inputs": [
        {
          "internalType": "uint256",
          "name": "batchId",
          "type": "uint256"
        }
      ],
      "name": "getStatusHistory",
      "outputs": [
        {
          "components": [
            {
              "internalType": "enum HalalSupplyChain.BatchStatus",
              "name": "newStatus",
              "type": "uint8"
            },
            {
              "internalType": "uint256",
              "name": "changedAt",
              "type": "uint256"
            }
          ],
          "internalType": "struct HalalSupplyChain.StatusChange[]",
          "name": "",
          "type": "tuple[]"
        }
      ],
      "stateMutability": "view",
      "type": "function"
    },
    {
      "inputs": [
        {
          "internalType": "address",
          "name": "account",
          "type": "address"
        }
      ],
      "name": "grantDistributorRole",
      "outputs": [],
      "stateMutability": "nonpayable",
      "type": "function"
    },
    {
      "inputs": [
        {
          "internalType": "address",
          "name": "account",
          "type": "address"
        }
      ],
      "name": "grantHalalAuthorityRole",
      "outputs": [],
      "stateMutability": "nonpayable",
      "type": "function"
    },
    {
      "inputs": [
        {
          "internalType": "address",
          "name": "account",
          "type": "address"
        }
      ],
      "name": "grantProducerRole",
      "outputs": [],
      "stateMutability": "nonpayable",
      "type": "function"
    },
    {
      "inputs": [
        {
          "internalType": "address",
          "name": "account",
          "type": "address"
        }
      ],
      "name": "grantRetailerRole",
      "outputs": [],
      "stateMutability": "nonpayable",
      "type": "function"
    },
    {
      "inputs": [
        {
          "internalType": "address",
          "name": "account",
          "type": "address"
        }
      ],
      "name": "grantSlaughterhouseRole",
      "outputs": [],
      "stateMutability": "nonpayable",
      "type": "function"
    },
    {
      "inputs": [
        {
          "internalType": "address",
          "name": "",
          "type": "address"
        }
      ],
      "name": "isDistributor",
      "outputs": [
        {
          "internalType": "bool",
          "name": "",
          "type": "bool"
        }
      ],
      "stateMutability": "view",
      "type": "function"
    },
    {
      "inputs": [
        {
          "internalType": "address",
          "name": "",
          "type": "address"
        }
      ],
      "name": "isHalalAuthority",
      "outputs": [
        {
          "internalType": "bool",
          "name": "",
          "type": "bool"
        }
      ],
      "stateMutability": "view",
      "type": "function"
    },
    {
      "inputs": [
        {
          "internalType": "address",
          "name": "",
          "type": "address"
        }
      ],
      "name": "isProducer",
      "outputs": [
        {
          "internalType": "bool",
          "name": "",
          "type": "bool"
        }
      ],
      "stateMutability": "view",
      "type": "function"
    },
    {
      "inputs": [
        {
          "internalType": "address",
          "name": "",
          "type": "address"
        }
      ],
      "name": "isRetailer",
      "outputs": [
        {
          "internalType": "bool",
          "name": "",
          "type": "bool"
        }
      ],
      "stateMutability": "view",
      "type": "function"
    },
    {
      "inputs": [
        {
          "internalType": "address",
          "name": "",
          "type": "address"
        }
      ],
      "name": "isSlaughterhouse",
      "outputs": [
        {
          "internalType": "bool",
          "name": "",
          "type": "bool"
        }
      ],
      "stateMutability": "view",
      "type": "function"
    },
    {
      "inputs": [
        {
          "internalType": "string",
          "name": "",
          "type": "string"
        },
        {
          "internalType": "uint256",
          "name": "",
          "type": "uint256"
        }
      ],
      "name": "nameAndCountToId",
      "outputs": [
        {
          "internalType": "uint256",
          "name": "",
          "type": "uint256"
        }
      ],
      "stateMutability": "view",
      "type": "function"
    },
    {
      "inputs": [
        {
          "internalType": "string",
          "name": "",
          "type": "string"
        }
      ],
      "name": "nameToCount",
      "outputs": [
        {
          "internalType": "uint256",
          "name": "",
          "type": "uint256"
        }
      ],
      "stateMutability": "view",
      "type": "function"
    },
    {
      "inputs": [
        {
          "internalType": "uint256",
          "name": "batchId",
          "type": "uint256"
        },
        {
          "internalType": "bool",
          "name": "isHalal",
          "type": "bool"
        }
      ],
      "name": "recordSlaughter",
      "outputs": [],
      "stateMutability": "nonpayable",
      "type": "function"
    },
    {
      "inputs": [
        {
          "internalType": "uint256",
          "name": "batchId",
          "type": "uint256"
        },
        {
          "internalType": "string",
          "name": "hash",
          "type": "string"
        },
        {
          "internalType": "bool",
          "name": "isH",
          "type": "bool"
        }
      ],
      "name": "setHalalCertificate",
      "outputs": [],
      "stateMutability": "nonpayable",
      "type": "function"
    },
    {
      "inputs": [
        {
          "internalType": "uint256",
          "name": "batchId",
          "type": "uint256"
        },
        {
          "internalType": "address",
          "name": "newOwner",
          "type": "address"
        }
      ],
      "name": "transferBatchOwnership",
      "outputs": [],
      "stateMutability": "nonpayable",
      "type": "function"
    }
  ],
  "bytecode": "0x60806040526001600655348015601457600080fd5b50336000806101000a81548173ffffffffffffffffffffffffffffffffffffffff021916908373ffffffffffffffffffffffffffffffffffffffff160217905550613282806100646000396000f3fe608060405234801561001057600080fd5b50600436106101215760003560e01c806384bc62d7116100ad578063b18c634c11610071578063b18c634c1461034e578063bbecdaa71461037e578063f55210221461039a578063f851a440146103ca578063f9f806e1146103e857610121565b806384bc62d71461029a5780638bba2a0a146102b65780638f0c86fa146102d257806392f82abd1461030257806394426cd71461033257610121565b80635ac44282116100f45780635ac44282146101be5780635da09b88146101ee5780636036ec681461021e57806361a5c9131461024e5780636e4e599c1461027e57610121565b80632d14145e146101265780632e42313014610142578063464f96491461017257806358a20b3b1461018e575b600080fd5b610140600480360381019061013b9190611fd2565b610404565b005b61015c6004803603810190610157919061217b565b610538565b60405161016991906121e6565b60405180910390f35b61018c60048036038101906101879190611fd2565b610573565b005b6101a860048036038101906101a39190612201565b6106a8565b6040516101b59190612392565b60405180910390f35b6101d860048036038101906101d39190612201565b61075f565b6040516101e591906124d2565b60405180910390f35b61020860048036038101906102039190611fd2565b6109ae565b604051610215919061250f565b60405180910390f35b6102386004803603810190610233919061252a565b6109ce565b60405161024591906121e6565b60405180910390f35b61026860048036038101906102639190611fd2565b6109fc565b604051610275919061250f565b60405180910390f35b61029860048036038101906102939190611fd2565b610a1c565b005b6102b460048036038101906102af9190612573565b610b51565b005b6102d060048036038101906102cb9190611fd2565b611057565b005b6102ec60048036038101906102e79190611fd2565b61118c565b6040516102f9919061250f565b60405180910390f35b61031c6004803603810190610317919061252a565b6111ac565b60405161032991906121e6565b60405180910390f35b61034c600480360381019061034791906125df565b6114f9565b005b61036860048036038101906103639190611fd2565b61170e565b604051610375919061250f565b60405180910390f35b6103986004803603810190610393919061261f565b61172e565b005b6103b460048036038101906103af9190611fd2565b611a1b565b6040516103c1919061250f565b60405180910390f35b6103d2611a3b565b6040516103df919061269d565b60405180910390f35b61040260048036038101906103fd9190611fd2565b611a5f565b005b60008054906101000a900473ffffffffffffffffffffffffffffffffffffffff1673ffffffffffffffffffffffffffffffffffffffff163373ffffffffffffffffffffffffffffffffffffffff1614610492576040517f08c379a00000000000000000000000000000000000000000000000000000000081526004016104899061273b565b60405180910390fd5b60018060008373ffffffffffffffffffffffffffffffffffffffff1673ffffffffffffffffffffffffffffffffffffffff16815260200190815260200160002060006101000a81548160ff0219169083151502179055508073ffffffffffffffffffffffffffffffffffffffff167fb710f7d3e79cb091613cfea70444ea824ad23f2b1297bdea427bc6f097e346a860405161052d906127a7565b60405180910390a250565b600982805160208101820180518482526020830160208501208183528095505050505050602052806000526040600020600091509150505481565b60008054906101000a900473ffffffffffffffffffffffffffffffffffffffff1673ffffffffffffffffffffffffffffffffffffffff163373ffffffffffffffffffffffffffffffffffffffff1614610601576040517f08c379a00000000000000000000000000000000000000000000000000000000081526004016105f89061273b565b60405180910390fd5b6001600560008373ffffffffffffffffffffffffffffffffffffffff1673ffffffffffffffffffffffffffffffffffffffff16815260200190815260200160002060006101000a81548160ff0219169083151502179055508073ffffffffffffffffffffffffffffffffffffffff167fb710f7d3e79cb091613cfea70444ea824ad23f2b1297bdea427bc6f097e346a860405161069d90612813565b60405180910390a250565b6060600a6000838152602001908152602001600020805480602002602001604051908101604052809291908181526020016000905b8282101561075457838290600052602060002090600202016040518060400160405290816000820160009054906101000a900460ff1660068111156107255761072461225a565b5b60068111156107375761073661225a565b5b8152602001600182015481525050815260200190600101906106dd565b505050509050919050565b610767611f02565b60006007600084815260200190815260200160002060000154036107c0576040517f08c379a00000000000000000000000000000000000000000000000000000000081526004016107b79061287f565b60405180910390fd5b600760008381526020019081526020016000206040518060c0016040529081600082015481526020016001820180546107f8906128ce565b80601f0160208091040260200160405190810160405280929190818152602001828054610824906128ce565b80156108715780601f1061084657610100808354040283529160200191610871565b820191906000526020600020905b81548152906001019060200180831161085457829003601f168201915b50505050508152602001600282015481526020016003820160009054906101000a900473ffffffffffffffffffffffffffffffffffffffff1673ffffffffffffffffffffffffffffffffffffffff1673ffffffffffffffffffffffffffffffffffffffff1681526020016003820160149054906101000a900460ff1660068111156108ff576108fe61225a565b5b60068111156109115761091061225a565b5b8152602001600482018054610925906128ce565b80601f0160208091040260200160405190810160405280929190818152602001828054610951906128ce565b801561099e5780601f106109735761010080835404028352916020019161099e565b820191906000526020600020905b81548152906001019060200180831161098157829003601f168201915b5050505050815250509050919050565b60036020528060005260406000206000915054906101000a900460ff1681565b6008818051602081018201805184825260208301602085012081835280955050505050506000915090505481565b60046020528060005260406000206000915054906101000a900460ff1681565b60008054906101000a900473ffffffffffffffffffffffffffffffffffffffff1673ffffffffffffffffffffffffffffffffffffffff163373ffffffffffffffffffffffffffffffffffffffff1614610aaa576040517f08c379a0000000000000000000000000000000000000000000000000000000008152600401610aa19061273b565b60405180910390fd5b6001600460008373ffffffffffffffffffffffffffffffffffffffff1673ffffffffffffffffffffffffffffffffffffffff16815260200190815260200160002060006101000a81548160ff0219169083151502179055508073ffffffffffffffffffffffffffffffffffffffff167fb710f7d3e79cb091613cfea70444ea824ad23f2b1297bdea427bc6f097e346a8604051610b469061294b565b60405180910390a250565b60006007600084815260200190815260200160002090503373ffffffffffffffffffffffffffffffffffffffff168160030160009054906101000a900473ffffffffffffffffffffffffffffffffffffffff1673ffffffffffffffffffffffffffffffffffffffff1614610bfa576040517f08c379a0000000000000000000000000000000000000000000000000000000008152600401610bf1906129b7565b60405180910390fd5b610c043383611b94565b610c43576040517f08c379a0000000000000000000000000000000000000000000000000000000008152600401610c3a90612a23565b60405180910390fd5b60008160030160149054906101000a900460ff169050600260008473ffffffffffffffffffffffffffffffffffffffff1673ffffffffffffffffffffffffffffffffffffffff16815260200190815260200160002060009054906101000a900460ff1615610cb45760049050610d0c565b600360008473ffffffffffffffffffffffffffffffffffffffff1673ffffffffffffffffffffffffffffffffffffffff16815260200190815260200160002060009054906101000a900460ff1615610d0b57600590505b5b610d278260030160149054906101000a900460ff1682611d01565b610d66576040517f08c379a0000000000000000000000000000000000000000000000000000000008152600401610d5d90612a8f565b60405180910390fd5b60008260030160009054906101000a900473ffffffffffffffffffffffffffffffffffffffff169050838360030160006101000a81548173ffffffffffffffffffffffffffffffffffffffff021916908373ffffffffffffffffffffffffffffffffffffffff160217905550818360030160146101000a81548160ff02191690836006811115610df957610df861225a565b5b0217905550600b600086815260200190815260200160002060405180606001604052808373ffffffffffffffffffffffffffffffffffffffff1681526020018673ffffffffffffffffffffffffffffffffffffffff16815260200142815250908060018154018082558091505060019003906000526020600020906003020160009091909190915060008201518160000160006101000a81548173ffffffffffffffffffffffffffffffffffffffff021916908373ffffffffffffffffffffffffffffffffffffffff16021790555060208201518160010160006101000a81548173ffffffffffffffffffffffffffffffffffffffff021916908373ffffffffffffffffffffffffffffffffffffffff160217905550604082015181600201555050600a600086815260200190815260200160002060405180604001604052808560030160149054906101000a900460ff166006811115610f5d57610f5c61225a565b5b815260200142815250908060018154018082558091505060019003906000526020600020906002020160009091909190915060008201518160000160006101000a81548160ff02191690836006811115610fba57610fb961225a565b5b02179055506020820151816001015550507f16b85f49bf01212961345d3016c9a531894accf62eb7680f2045d79185cc0ec0858286604051610ffe93929190612aaf565b60405180910390a17fcf4d4f3dcd5294f4d19269f489155c2187699f4a9fb9004b6a303752b00b282f858460030160149054906101000a900460ff16604051611048929190612af5565b60405180910390a15050505050565b60008054906101000a900473ffffffffffffffffffffffffffffffffffffffff1673ffffffffffffffffffffffffffffffffffffffff163373ffffffffffffffffffffffffffffffffffffffff16146110e5576040517f08c379a00000000000000000000000000000000000000000000000000000000081526004016110dc9061273b565b60405180910390fd5b6001600260008373ffffffffffffffffffffffffffffffffffffffff1673ffffffffffffffffffffffffffffffffffffffff16815260200190815260200160002060006101000a81548160ff0219169083151502179055508073ffffffffffffffffffffffffffffffffffffffff167fb710f7d3e79cb091613cfea70444ea824ad23f2b1297bdea427bc6f097e346a860405161118190612b6a565b60405180910390a250565b60026020528060005260406000206000915054906101000a900460ff1681565b6000600160003373ffffffffffffffffffffffffffffffffffffffff1673ffffffffffffffffffffffffffffffffffffffff16815260200190815260200160002060009054906101000a900460ff1661123a576040517f08c379a000000000000000000000000000000000000000000000000000000000815260040161123190612bfc565b60405180910390fd5b60088260405161124a9190612c58565b9081526020016040518091039020600081548092919061126990612c9e565b919050555060006008836040516112809190612c58565b90815260200160405180910390205490506000600660008154809291906112a690612c9e565b919050559050806009856040516112bd9190612c58565b90815260200160405180910390206000848152602001908152602001600020819055506040518060c001604052808281526020018581526020018381526020013373ffffffffffffffffffffffffffffffffffffffff1681526020016000600681111561132d5761132c61225a565b5b815260200160405180602001604052806000815250815250600760008381526020019081526020016000206000820151816000015560208201518160010190816113779190612e92565b506040820151816002015560608201518160030160006101000a81548173ffffffffffffffffffffffffffffffffffffffff021916908373ffffffffffffffffffffffffffffffffffffffff16021790555060808201518160030160146101000a81548160ff021916908360068111156113f4576113f361225a565b5b021790555060a082015181600401908161140e9190612e92565b50905050600a60008281526020019081526020016000206040518060400160405280600060068111156114445761144361225a565b5b815260200142815250908060018154018082558091505060019003906000526020600020906002020160009091909190915060008201518160000160006101000a81548160ff021916908360068111156114a1576114a061225a565b5b02179055506020820151816001015550507f706256f465c65c2ea1bc0b3782bb22cc05d6c777184d9e8db44559223dd67303818584336040516114e79493929190612f9d565b60405180910390a18092505050919050565b600560003373ffffffffffffffffffffffffffffffffffffffff1673ffffffffffffffffffffffffffffffffffffffff16815260200190815260200160002060009054906101000a900460ff16611585576040517f08c379a000000000000000000000000000000000000000000000000000000000815260040161157c9061305b565b60405180910390fd5b6115b36007600084815260200190815260200160002060030160149054906101000a900460ff166001611d01565b6115f2576040517f08c379a00000000000000000000000000000000000000000000000000000000081526004016115e9906130c7565b60405180910390fd5b60016007600084815260200190815260200160002060030160146101000a81548160ff0219169083600681111561162c5761162b61225a565b5b0217905550600a60008381526020019081526020016000206040518060400160405280600160068111156116635761166261225a565b5b815260200142815250908060018154018082558091505060019003906000526020600020906002020160009091909190915060008201518160000160006101000a81548160ff021916908360068111156116c0576116bf61225a565b5b02179055506020820151816001015550507fa0594770d5d569311f3325dce04cdb5c813190dfdc38f2b16d05c3dff81c9d4f82826040516117029291906130e7565b60405180910390a15050565b60056020528060005260406000206000915054906101000a900460ff1681565b600460003373ffffffffffffffffffffffffffffffffffffffff1673ffffffffffffffffffffffffffffffffffffffff16815260200190815260200160002060009054906101000a900460ff166117ba576040517f08c379a00000000000000000000000000000000000000000000000000000000081526004016117b190613182565b60405180910390fd5b6000816117c85760036117cb565b60025b90506117fa6007600086815260200190815260200160002060030160149054906101000a900460ff1682611d01565b611839576040517f08c379a0000000000000000000000000000000000000000000000000000000008152600401611830906130c7565b60405180910390fd5b6000600760008681526020019081526020016000209050838160040190816118619190612e92565b50818160030160146101000a81548160ff021916908360068111156118895761188861225a565b5b0217905550600c60008681526020019081526020016000206040518060600160405280868152602001851515815260200142815250908060018154018082558091505060019003906000526020600020906003020160009091909190915060008201518160000190816118fc9190612e92565b5060208201518160010160006101000a81548160ff021916908315150217905550604082015181600201555050600a600086815260200190815260200160002060405180604001604052808360030160149054906101000a900460ff16600681111561196b5761196a61225a565b5b815260200142815250908060018154018082558091505060019003906000526020600020906002020160009091909190915060008201518160000160006101000a81548160ff021916908360068111156119c8576119c761225a565b5b02179055506020820151816001015550507ff1a61d888ad20e6bc34f2faab07c2c4f27a1332ba5ca4ef7afdd0c9eee062538858585604051611a0c939291906131a2565b60405180910390a15050505050565b60016020528060005260406000206000915054906101000a900460ff1681565b60008054906101000a900473ffffffffffffffffffffffffffffffffffffffff1681565b60008054906101000a900473ffffffffffffffffffffffffffffffffffffffff1673ffffffffffffffffffffffffffffffffffffffff163373ffffffffffffffffffffffffffffffffffffffff1614611aed576040517f08c379a0000000000000000000000000000000000000000000000000000000008152600401611ae49061273b565b60405180910390fd5b6001600360008373ffffffffffffffffffffffffffffffffffffffff1673ffffffffffffffffffffffffffffffffffffffff16815260200190815260200160002060006101000a81548160ff0219169083151502179055508073ffffffffffffffffffffffffffffffffffffffff167fb710f7d3e79cb091613cfea70444ea824ad23f2b1297bdea427bc6f097e346a8604051611b899061322c565b60405180910390a250565b6000600160008473ffffffffffffffffffffffffffffffffffffffff1673ffffffffffffffffffffffffffffffffffffffff16815260200190815260200160002060009054906101000a900460ff168015611c385750600260008373ffffffffffffffffffffffffffffffffffffffff1673ffffffffffffffffffffffffffffffffffffffff16815260200190815260200160002060009054906101000a900460ff165b15611c465760019050611cfb565b600260008473ffffffffffffffffffffffffffffffffffffffff1673ffffffffffffffffffffffffffffffffffffffff16815260200190815260200160002060009054906101000a900460ff168015611ce85750600360008373ffffffffffffffffffffffffffffffffffffffff1673ffffffffffffffffffffffffffffffffffffffff16815260200190815260200160002060009054906101000a900460ff165b15611cf65760019050611cfb565b600090505b92915050565b6000806006811115611d1657611d1561225a565b5b836006811115611d2957611d2861225a565b5b03611d5d5760016006811115611d4257611d4161225a565b5b826006811115611d5557611d5461225a565b5b149050611efc565b60016006811115611d7157611d7061225a565b5b836006811115611d8457611d8361225a565b5b03611de75760026006811115611d9d57611d9c61225a565b5b826006811115611db057611daf61225a565b5b1480611de0575060036006811115611dcb57611dca61225a565b5b826006811115611dde57611ddd61225a565b5b145b9050611efc565b60026006811115611dfb57611dfa61225a565b5b836006811115611e0e57611e0d61225a565b5b03611e425760046006811115611e2757611e2661225a565b5b826006811115611e3a57611e3961225a565b5b149050611efc565b60046006811115611e5657611e5561225a565b5b836006811115611e6957611e6861225a565b5b03611e9d5760056006811115611e8257611e8161225a565b5b826006811115611e9557611e9461225a565b5b149050611efc565b60056006811115611eb157611eb061225a565b5b836006811115611ec457611ec361225a565b5b03611ef757600680811115611edc57611edb61225a565b5b826006811115611eef57611eee61225a565b5b149050611efc565b600090505b92915050565b6040518060c00160405280600081526020016060815260200160008152602001600073ffffffffffffffffffffffffffffffffffffffff16815260200160006006811115611f5357611f5261225a565b5b8152602001606081525090565b6000604051905090565b600080fd5b600080fd5b600073ffffffffffffffffffffffffffffffffffffffff82169050919050565b6000611f9f82611f74565b9050919050565b611faf81611f94565b8114611fba57600080fd5b50565b600081359050611fcc81611fa6565b92915050565b600060208284031215611fe857611fe7611f6a565b5b6000611ff684828501611fbd565b91505092915050565b600080fd5b600080fd5b6000601f19601f8301169050919050565b7f4e487b7100000000000000000000000000000000000000000000000000000000600052604160045260246000fd5b61205282612009565b810181811067ffffffffffffffff821117156120715761207061201a565b5b80604052505050565b6000612084611f60565b90506120908282612049565b919050565b600067ffffffffffffffff8211156120b0576120af61201a565b5b6120b982612009565b9050602081019050919050565b82818337600083830152505050565b60006120e86120e384612095565b61207a565b90508281526020810184848401111561210457612103612004565b5b61210f8482856120c6565b509392505050565b600082601f83011261212c5761212b611fff565b5b813561213c8482602086016120d5565b91505092915050565b6000819050919050565b61215881612145565b811461216357600080fd5b50565b6000813590506121758161214f565b92915050565b6000806040838503121561219257612191611f6a565b5b600083013567ffffffffffffffff8111156121b0576121af611f6f565b5b6121bc85828601612117565b92505060206121cd85828601612166565b9150509250929050565b6121e081612145565b82525050565b60006020820190506121fb60008301846121d7565b92915050565b60006020828403121561221757612216611f6a565b5b600061222584828501612166565b91505092915050565b600081519050919050565b600082825260208201905092915050565b6000819050602082019050919050565b7f4e487b7100000000000000000000000000000000000000000000000000000000600052602160045260246000fd5b6007811061229a5761229961225a565b5b50565b60008190506122ab82612289565b919050565b60006122bb8261229d565b9050919050565b6122cb816122b0565b82525050565b6122da81612145565b82525050565b6040820160008201516122f660008501826122c2565b50602082015161230960208501826122d1565b50505050565b600061231b83836122e0565b60408301905092915050565b6000602082019050919050565b600061233f8261222e565b6123498185612239565b93506123548361224a565b8060005b8381101561238557815161236c888261230f565b975061237783612327565b925050600181019050612358565b5085935050505092915050565b600060208201905081810360008301526123ac8184612334565b905092915050565b600081519050919050565b600082825260208201905092915050565b60005b838110156123ee5780820151818401526020810190506123d3565b60008484015250505050565b6000612405826123b4565b61240f81856123bf565b935061241f8185602086016123d0565b61242881612009565b840191505092915050565b61243c81611f94565b82525050565b600060c08301600083015161245a60008601826122d1565b506020830151848203602086015261247282826123fa565b915050604083015161248760408601826122d1565b50606083015161249a6060860182612433565b5060808301516124ad60808601826122c2565b5060a083015184820360a08601526124c582826123fa565b9150508091505092915050565b600060208201905081810360008301526124ec8184612442565b905092915050565b60008115159050919050565b612509816124f4565b82525050565b60006020820190506125246000830184612500565b92915050565b6000602082840312156125405761253f611f6a565b5b600082013567ffffffffffffffff81111561255e5761255d611f6f565b5b61256a84828501612117565b91505092915050565b6000806040838503121561258a57612589611f6a565b5b600061259885828601612166565b92505060206125a985828601611fbd565b9150509250929050565b6125bc816124f4565b81146125c757600080fd5b50565b6000813590506125d9816125b3565b92915050565b600080604083850312156125f6576125f5611f6a565b5b600061260485828601612166565b9250506020612615858286016125ca565b9150509250929050565b60008060006060848603121561263857612637611f6a565b5b600061264686828701612166565b935050602084013567ffffffffffffffff81111561266757612666611f6f565b5b61267386828701612117565b9250506040612684868287016125ca565b9150509250925092565b61269781611f94565b82525050565b60006020820190506126b2600083018461268e565b92915050565b600082825260208201905092915050565b7f4f6e6c792061646d696e2063616e20706572666f726d2074686973206163746960008201527f6f6e000000000000000000000000000000000000000000000000000000000000602082015250565b60006127256022836126b8565b9150612730826126c9565b604082019050919050565b6000602082019050818103600083015261275481612718565b9050919050565b7f50726f6475636572000000000000000000000000000000000000000000000000600082015250565b60006127916008836126b8565b915061279c8261275b565b602082019050919050565b600060208201905081810360008301526127c081612784565b9050919050565b7f536c61756768746572686f757365000000000000000000000000000000000000600082015250565b60006127fd600e836126b8565b9150612808826127c7565b602082019050919050565b6000602082019050818103600083015261282c816127f0565b9050919050565b7f426174636820646f6573206e6f74206578697374000000000000000000000000600082015250565b60006128696014836126b8565b915061287482612833565b602082019050919050565b600060208201905081810360008301526128988161285c565b9050919050565b7f4e487b7100000000000000000000000000000000000000000000000000000000600052602260045260246000fd5b600060028204905060018216806128e657607f821691505b6020821081036128f9576128f861289f565b5b50919050565b7f48616c616c20417574686f726974790000000000000000000000000000000000600082015250565b6000612935600f836126b8565b9150612940826128ff565b602082019050919050565b6000602082019050818103600083015261296481612928565b9050919050565b7f4f6e6c792063757272656e74206f776e65722063616e207472616e7366657200600082015250565b60006129a1601f836126b8565b91506129ac8261296b565b602082019050919050565b600060208201905081810360008301526129d081612994565b9050919050565b7f496e76616c6964207472616e7366657220726f6c657300000000000000000000600082015250565b6000612a0d6016836126b8565b9150612a18826129d7565b602082019050919050565b60006020820190508181036000830152612a3c81612a00565b9050919050565b7f496e76616c696420737461747573207472616e736974696f6e00000000000000600082015250565b6000612a796019836126b8565b9150612a8482612a43565b602082019050919050565b60006020820190508181036000830152612aa881612a6c565b9050919050565b6000606082019050612ac460008301866121d7565b612ad1602083018561268e565b612ade604083018461268e565b949350505050565b612aef816122b0565b82525050565b6000604082019050612b0a60008301856121d7565b612b176020830184612ae6565b9392505050565b7f4469737472696275746f72000000000000000000000000000000000000000000600082015250565b6000612b54600b836126b8565b9150612b5f82612b1e565b602082019050919050565b60006020820190508181036000830152612b8381612b47565b9050919050565b7f4f6e6c792070726f64756365722063616e20706572666f726d2074686973206160008201527f6374696f6e000000000000000000000000000000000000000000000000000000602082015250565b6000612be66025836126b8565b9150612bf182612b8a565b604082019050919050565b60006020820190508181036000830152612c1581612bd9565b9050919050565b600081905092915050565b6000612c32826123b4565b612c3c8185612c1c565b9350612c4c8185602086016123d0565b80840191505092915050565b6000612c648284612c27565b915081905092915050565b7f4e487b7100000000000000000000000000000000000000000000000000000000600052601160045260246000fd5b6000612ca982612145565b91507fffffffffffffffffffffffffffffffffffffffffffffffffffffffffffffffff8203612cdb57612cda612c6f565b5b600182019050919050565b60008190508160005260206000209050919050565b60006020601f8301049050919050565b600082821b905092915050565b600060088302612d487fffffffffffffffffffffffffffffffffffffffffffffffffffffffffffffffff82612d0b565b612d528683612d0b565b95508019841693508086168417925050509392505050565b6000819050919050565b6000612d8f612d8a612d8584612145565b612d6a565b612145565b9050919050565b6000819050919050565b612da983612d74565b612dbd612db582612d96565b848454612d18565b825550505050565b600090565b612dd2612dc5565b612ddd818484612da0565b505050565b5b81811015612e0157612df6600082612dca565b600181019050612de3565b5050565b601f821115612e4657612e1781612ce6565b612e2084612cfb565b81016020851015612e2f578190505b612e43612e3b85612cfb565b830182612de2565b50505b505050565b600082821c905092915050565b6000612e6960001984600802612e4b565b1980831691505092915050565b6000612e828383612e58565b9150826002028217905092915050565b612e9b826123b4565b67ffffffffffffffff811115612eb457612eb361201a565b5b612ebe82546128ce565b612ec9828285612e05565b600060209050601f831160018114612efc5760008415612eea578287015190505b612ef48582612e76565b865550612f5c565b601f198416612f0a86612ce6565b60005b82811015612f3257848901518255600182019150602085019450602081019050612f0d565b86831015612f4f5784890151612f4b601f891682612e58565b8355505b6001600288020188555050505b505050505050565b6000612f6f826123b4565b612f7981856126b8565b9350612f898185602086016123d0565b612f9281612009565b840191505092915050565b6000608082019050612fb260008301876121d7565b8181036020830152612fc48186612f64565b9050612fd360408301856121d7565b612fe0606083018461268e565b95945050505050565b7f4f6e6c7920736c61756768746572686f7573652063616e20706572666f726d2060008201527f7468697320616374696f6e000000000000000000000000000000000000000000602082015250565b6000613045602b836126b8565b915061305082612fe9565b604082019050919050565b6000602082019050818103600083015261307481613038565b9050919050565b7f496e76616c696420737461747573206d6f766500000000000000000000000000600082015250565b60006130b16013836126b8565b91506130bc8261307b565b602082019050919050565b600060208201905081810360008301526130e0816130a4565b9050919050565b60006040820190506130fc60008301856121d7565b6131096020830184612500565b9392505050565b7f4f6e6c792068616c616c20617574686f726974792063616e20706572666f726d60008201527f207468697320616374696f6e0000000000000000000000000000000000000000602082015250565b600061316c602c836126b8565b915061317782613110565b604082019050919050565b6000602082019050818103600083015261319b8161315f565b9050919050565b60006060820190506131b760008301866121d7565b81810360208301526131c98185612f64565b90506131d86040830184612500565b949350505050565b7f52657461696c6572000000000000000000000000000000000000000000000000600082015250565b60006132166008836126b8565b9150613221826131e0565b602082019050919050565b6000602082019050818103600083015261324581613209565b905091905056fea26469706673582212202a56c77165f2228d29386150ba41677b89c9048a7cec6ab97d4426f7ce67bb3564736f6c634300081c0033",
  "linkReferences": {},
  "deployedLinkReferences": {}
}