{
  "_format": "hh-sol-artifact-1",
  "contractName": "HalalSupplyChain",
  "sourceName": "contracts/HalalSupplyChain.sol",
  "abi": [
    {
      "inputs": [],
      "stateMutability": "nonpayable",
      "type": "constructor"
    },
    {
      "anonymous": false,
      "inputs": [
        {
          "indexed": false,
          "internalType": "uint256",
          "name": "batchId",
          "type": "uint256"
        },
        {
          "indexed": false,
          "internalType": "string",
          "name": "name",
          "type": "string"
        },
        {
          "indexed": false,
          "internalType": "uint256",
          "name": "count",
          "type": "uint256"
        },
        {
          "indexed": false,
          "internalType": "address",
          "name": "producer",
          "type": "address"
        }
      ],
      "name": "BatchCreated",
      "type": "event"
    },
    {
      "anonymous": false,
      "inputs": [
        {
          "indexed": false,
          "internalType": "uint256",
          "name": "batchId",
          "type": "uint256"
        },
        {
          "indexed": false,
          "internalType": "enum HalalSupplyChain.BatchStatus",
          "name": "newStatus",
          "type": "uint8"
        }
      ],
      "name": "BatchStatusUpdated",
      "type": "event"
    },
    {
      "anonymous": false,
      "inputs": [
        {
          "indexed": false,
          "internalType": "uint256",
          "name": "batchId",
          "type": "uint256"
        },
        {
          "indexed": false,
          "internalType": "string",
          "name": "certificateHash",
          "type": "string"
        },
        {
          "indexed": false,
          "internalType": "bool",
          "name": "isHalal",
          "type": "bool"
        }
      ],
      "name": "HalalCertificateSet",
      "type": "event"
    },
    {
      "anonymous": false,
      "inputs": [
        {
          "indexed": false,
          "internalType": "uint256",
          "name": "batchId",
          "type": "uint256"
        },
        {
          "indexed": false,
          "internalType": "address",
          "name": "from",
          "type": "address"
        },
        {
          "indexed": false,
          "internalType": "address",
          "name": "to",
          "type": "address"
        }
      ],
      "name": "OwnershipTransferred",
      "type": "event"
    },
    {
      "anonymous": false,
      "inputs": [
        {
          "indexed": true,
          "internalType": "address",
          "name": "account",
          "type": "address"
        },
        {
          "indexed": false,
          "internalType": "string",
          "name": "role",
          "type": "string"
        }
      ],
      "name": "RoleGranted",
      "type": "event"
    },
    {
      "anonymous": false,
      "inputs": [
        {
          "indexed": false,
          "internalType": "uint256",
          "name": "batchId",
          "type": "uint256"
        },
        {
          "indexed": false,
          "internalType": "bool",
          "name": "isHalal",
          "type": "bool"
        }
      ],
      "name": "SlaughterRecorded",
      "type": "event"
    },
    {
      "inputs": [],
      "name": "admin",
      "outputs": [
        {
          "internalType": "address",
          "name": "",
          "type": "address"
        }
      ],
      "stateMutability": "view",
      "type": "function"
    },
    {
      "inputs": [
        {
          "internalType": "string",
          "name": "name",
          "type": "string"
        }
      ],
      "name": "createBatch",
      "outputs": [
        {
          "internalType": "uint256",
          "name": "",
          "type": "uint256"
        }
      ],
      "stateMutability": "nonpayable",
      "type": "function"
    },
    {
      "inputs": [
        {
          "internalType": "uint256",
          "name": "batchId",
          "type": "uint256"
        }
      ],
      "name": "getBatch",
      "outputs": [
        {
          "components": [
            {
              "internalType": "uint256",
              "name": "id",
              "type": "uint256"
            },
            {
              "internalType": "string",
              "name": "name",
              "type": "string"
            },
            {
              "internalType": "uint256",
              "name": "nameCount",
              "type": "uint256"
            },
            {
              "internalType": "address",
              "name": "producer",
              "type": "address"
            },
            {
              "internalType": "address",
              "name": "currentOwner",
              "type": "address"
            },
            {
              "internalType": "enum HalalSupplyChain.BatchStatus",
              "name": "status",
              "type": "uint8"
            },
            {
              "internalType": "string",
              "name": "certificateHash",
              "type": "string"
            }
          ],
          "internalType": "struct HalalSupplyChain.Batch",
          "name": "",
          "type": "tuple"
        }
      ],
      "stateMutability": "view",
      "type": "function"
    },
    {
      "inputs": [
        {
          "internalType": "uint256",
          "name": "batchId",
          "type": "uint256"
        }
      ],
      "name": "getStatusHistory",
      "outputs": [
        {
          "components": [
            {
              "internalType": "enum HalalSupplyChain.BatchStatus",
              "name": "newStatus",
              "type": "uint8"
            },
            {
              "internalType": "uint256",
              "name": "changedAt",
              "type": "uint256"
            }
          ],
          "internalType": "struct HalalSupplyChain.StatusChange[]",
          "name": "",
          "type": "tuple[]"
        }
      ],
      "stateMutability": "view",
      "type": "function"
    },
    {
      "inputs": [
        {
          "internalType": "address",
          "name": "account",
          "type": "address"
        }
      ],
      "name": "grantDistributorRole",
      "outputs": [],
      "stateMutability": "nonpayable",
      "type": "function"
    },
    {
      "inputs": [
        {
          "internalType": "address",
          "name": "account",
          "type": "address"
        }
      ],
      "name": "grantHalalAuthorityRole",
      "outputs": [],
      "stateMutability": "nonpayable",
      "type": "function"
    },
    {
      "inputs": [
        {
          "internalType": "address",
          "name": "account",
          "type": "address"
        }
      ],
      "name": "grantProducerRole",
      "outputs": [],
      "stateMutability": "nonpayable",
      "type": "function"
    },
    {
      "inputs": [
        {
          "internalType": "address",
          "name": "account",
          "type": "address"
        }
      ],
      "name": "grantRetailerRole",
      "outputs": [],
      "stateMutability": "nonpayable",
      "type": "function"
    },
    {
      "inputs": [
        {
          "internalType": "address",
          "name": "account",
          "type": "address"
        }
      ],
      "name": "grantSlaughterhouseRole",
      "outputs": [],
      "stateMutability": "nonpayable",
      "type": "function"
    },
    {
      "inputs": [
        {
          "internalType": "address",
          "name": "",
          "type": "address"
        }
      ],
      "name": "isDistributor",
      "outputs": [
        {
          "internalType": "bool",
          "name": "",
          "type": "bool"
        }
      ],
      "stateMutability": "view",
      "type": "function"
    },
    {
      "inputs": [
        {
          "internalType": "address",
          "name": "",
          "type": "address"
        }
      ],
      "name": "isHalalAuthority",
      "outputs": [
        {
          "internalType": "bool",
          "name": "",
          "type": "bool"
        }
      ],
      "stateMutability": "view",
      "type": "function"
    },
    {
      "inputs": [
        {
          "internalType": "address",
          "name": "",
          "type": "address"
        }
      ],
      "name": "isProducer",
      "outputs": [
        {
          "internalType": "bool",
          "name": "",
          "type": "bool"
        }
      ],
      "stateMutability": "view",
      "type": "function"
    },
    {
      "inputs": [
        {
          "internalType": "address",
          "name": "",
          "type": "address"
        }
      ],
      "name": "isRetailer",
      "outputs": [
        {
          "internalType": "bool",
          "name": "",
          "type": "bool"
        }
      ],
      "stateMutability": "view",
      "type": "function"
    },
    {
      "inputs": [
        {
          "internalType": "address",
          "name": "",
          "type": "address"
        }
      ],
      "name": "isSlaughterhouse",
      "outputs": [
        {
          "internalType": "bool",
          "name": "",
          "type": "bool"
        }
      ],
      "stateMutability": "view",
      "type": "function"
    },
    {
      "inputs": [
        {
          "internalType": "uint256",
          "name": "batchId",
          "type": "uint256"
        }
      ],
      "name": "markAsSold",
      "outputs": [],
      "stateMutability": "nonpayable",
      "type": "function"
    },
    {
      "inputs": [
        {
          "internalType": "string",
          "name": "",
          "type": "string"
        },
        {
          "internalType": "uint256",
          "name": "",
          "type": "uint256"
        }
      ],
      "name": "nameAndCountToId",
      "outputs": [
        {
          "internalType": "uint256",
          "name": "",
          "type": "uint256"
        }
      ],
      "stateMutability": "view",
      "type": "function"
    },
    {
      "inputs": [
        {
          "internalType": "string",
          "name": "",
          "type": "string"
        }
      ],
      "name": "nameToCount",
      "outputs": [
        {
          "internalType": "uint256",
          "name": "",
          "type": "uint256"
        }
      ],
      "stateMutability": "view",
      "type": "function"
    },
    {
      "inputs": [
        {
          "internalType": "uint256",
          "name": "batchId",
          "type": "uint256"
        },
        {
          "internalType": "bool",
          "name": "isHalal",
          "type": "bool"
        }
      ],
      "name": "recordSlaughter",
      "outputs": [],
      "stateMutability": "nonpayable",
      "type": "function"
    },
    {
      "inputs": [
        {
          "internalType": "uint256",
          "name": "batchId",
          "type": "uint256"
        },
        {
          "internalType": "string",
          "name": "hash",
          "type": "string"
        },
        {
          "internalType": "bool",
          "name": "isH",
          "type": "bool"
        }
      ],
      "name": "setHalalCertificate",
      "outputs": [],
      "stateMutability": "nonpayable",
      "type": "function"
    },
    {
      "inputs": [
        {
          "internalType": "uint256",
          "name": "batchId",
          "type": "uint256"
        },
        {
          "internalType": "address",
          "name": "newOwner",
          "type": "address"
        }
      ],
      "name": "transferBatchOwnership",
      "outputs": [],
      "stateMutability": "nonpayable",
      "type": "function"
    }
  ],
  "bytecode": "0x60806040526001600655348015601457600080fd5b50336000806101000a81548173ffffffffffffffffffffffffffffffffffffffff021916908373ffffffffffffffffffffffffffffffffffffffff160217905550613939806100646000396000f3fe608060405234801561001057600080fd5b506004361061012c5760003560e01c806384bc62d7116100ad578063b18c634c11610071578063b18c634c14610375578063bbecdaa7146103a5578063f5521022146103c1578063f851a440146103f1578063f9f806e11461040f5761012c565b806384bc62d7146102c15780638bba2a0a146102dd5780638f0c86fa146102f957806392f82abd1461032957806394426cd7146103595761012c565b80635ac44282116100f45780635ac44282146101e55780635da09b88146102155780636036ec681461024557806361a5c913146102755780636e4e599c146102a55761012c565b80632931a108146101315780632d14145e1461014d5780632e42313014610169578063464f96491461019957806358a20b3b146101b5575b600080fd5b61014b6004803603810190610146919061252a565b61042b565b005b610167600480360381019061016291906125b5565b6108ae565b005b610183600480360381019061017e9190612728565b6109e2565b6040516101909190612793565b60405180910390f35b6101b360048036038101906101ae91906125b5565b610a1d565b005b6101cf60048036038101906101ca919061252a565b610b52565b6040516101dc9190612912565b60405180910390f35b6101ff60048036038101906101fa919061252a565b610c09565b60405161020c9190612a65565b60405180910390f35b61022f600480360381019061022a91906125b5565b610eae565b60405161023c9190612aa2565b60405180910390f35b61025f600480360381019061025a9190612abd565b610ece565b60405161026c9190612793565b60405180910390f35b61028f600480360381019061028a91906125b5565b610efc565b60405161029c9190612aa2565b60405180910390f35b6102bf60048036038101906102ba91906125b5565b610f1c565b005b6102db60048036038101906102d69190612b06565b611051565b005b6102f760048036038101906102f291906125b5565b611557565b005b610313600480360381019061030e91906125b5565b61168c565b6040516103209190612aa2565b60405180910390f35b610343600480360381019061033e9190612abd565b6116ac565b6040516103509190612793565b60405180910390f35b610373600480360381019061036e9190612b72565b611a5c565b005b61038f600480360381019061038a91906125b5565b611c71565b60405161039c9190612aa2565b60405180910390f35b6103bf60048036038101906103ba9190612bb2565b611c91565b005b6103db60048036038101906103d691906125b5565b611f7e565b6040516103e89190612aa2565b60405180910390f35b6103f9611f9e565b6040516104069190612c30565b60405180910390f35b610429600480360381019061042491906125b5565b611fc2565b005b600360003373ffffffffffffffffffffffffffffffffffffffff1673ffffffffffffffffffffffffffffffffffffffff16815260200190815260200160002060009054906101000a900460ff166104b7576040517f08c379a00000000000000000000000000000000000000000000000000000000081526004016104ae90612cce565b60405180910390fd5b60006007600083815260200190815260200160002090503373ffffffffffffffffffffffffffffffffffffffff168160040160009054906101000a900473ffffffffffffffffffffffffffffffffffffffff1673ffffffffffffffffffffffffffffffffffffffff1614610560576040517f08c379a000000000000000000000000000000000000000000000000000000000815260040161055790612d60565b60405180910390fd5b61057c8160040160149054906101000a900460ff1660066120f7565b6105bb576040517f08c379a00000000000000000000000000000000000000000000000000000000081526004016105b290612dcc565b60405180910390fd5b60008160040160009054906101000a900473ffffffffffffffffffffffffffffffffffffffff16905060008260040160006101000a81548173ffffffffffffffffffffffffffffffffffffffff021916908373ffffffffffffffffffffffffffffffffffffffff16021790555060068260040160146101000a81548160ff021916908360068111156106505761064f6127da565b5b0217905550600b600084815260200190815260200160002060405180606001604052808373ffffffffffffffffffffffffffffffffffffffff168152602001600073ffffffffffffffffffffffffffffffffffffffff16815260200142815250908060018154018082558091505060019003906000526020600020906003020160009091909190915060008201518160000160006101000a81548173ffffffffffffffffffffffffffffffffffffffff021916908373ffffffffffffffffffffffffffffffffffffffff16021790555060208201518160010160006101000a81548173ffffffffffffffffffffffffffffffffffffffff021916908373ffffffffffffffffffffffffffffffffffffffff160217905550604082015181600201555050600a600084815260200190815260200160002060405180604001604052808460040160149054906101000a900460ff1660068111156107b5576107b46127da565b5b815260200142815250908060018154018082558091505060019003906000526020600020906002020160009091909190915060008201518160000160006101000a81548160ff02191690836006811115610812576108116127da565b5b02179055506020820151816001015550507f16b85f49bf01212961345d3016c9a531894accf62eb7680f2045d79185cc0ec08382600060405161085793929190612dec565b60405180910390a17fcf4d4f3dcd5294f4d19269f489155c2187699f4a9fb9004b6a303752b00b282f838360040160149054906101000a900460ff166040516108a1929190612e32565b60405180910390a1505050565b60008054906101000a900473ffffffffffffffffffffffffffffffffffffffff1673ffffffffffffffffffffffffffffffffffffffff163373ffffffffffffffffffffffffffffffffffffffff161461093c576040517f08c379a000000000000000000000000000000000000000000000000000000000815260040161093390612ecd565b60405180910390fd5b60018060008373ffffffffffffffffffffffffffffffffffffffff1673ffffffffffffffffffffffffffffffffffffffff16815260200190815260200160002060006101000a81548160ff0219169083151502179055508073ffffffffffffffffffffffffffffffffffffffff167fb710f7d3e79cb091613cfea70444ea824ad23f2b1297bdea427bc6f097e346a86040516109d790612f39565b60405180910390a250565b600982805160208101820180518482526020830160208501208183528095505050505050602052806000526040600020600091509150505481565b60008054906101000a900473ffffffffffffffffffffffffffffffffffffffff1673ffffffffffffffffffffffffffffffffffffffff163373ffffffffffffffffffffffffffffffffffffffff1614610aab576040517f08c379a0000000000000000000000000000000000000000000000000000000008152600401610aa290612ecd565b60405180910390fd5b6001600560008373ffffffffffffffffffffffffffffffffffffffff1673ffffffffffffffffffffffffffffffffffffffff16815260200190815260200160002060006101000a81548160ff0219169083151502179055508073ffffffffffffffffffffffffffffffffffffffff167fb710f7d3e79cb091613cfea70444ea824ad23f2b1297bdea427bc6f097e346a8604051610b4790612fa5565b60405180910390a250565b6060600a6000838152602001908152602001600020805480602002602001604051908101604052809291908181526020016000905b82821015610bfe57838290600052602060002090600202016040518060400160405290816000820160009054906101000a900460ff166006811115610bcf57610bce6127da565b5b6006811115610be157610be06127da565b5b815260200160018201548152505081526020019060010190610b87565b505050509050919050565b610c11612465565b6000600760008481526020019081526020016000206000015403610c6a576040517f08c379a0000000000000000000000000000000000000000000000000000000008152600401610c6190613011565b60405180910390fd5b600760008381526020019081526020016000206040518060e001604052908160008201548152602001600182018054610ca290613060565b80601f0160208091040260200160405190810160405280929190818152602001828054610cce90613060565b8015610d1b5780601f10610cf057610100808354040283529160200191610d1b565b820191906000526020600020905b815481529060010190602001808311610cfe57829003601f168201915b50505050508152602001600282015481526020016003820160009054906101000a900473ffffffffffffffffffffffffffffffffffffffff1673ffffffffffffffffffffffffffffffffffffffff1673ffffffffffffffffffffffffffffffffffffffff1681526020016004820160009054906101000a900473ffffffffffffffffffffffffffffffffffffffff1673ffffffffffffffffffffffffffffffffffffffff1673ffffffffffffffffffffffffffffffffffffffff1681526020016004820160149054906101000a900460ff166006811115610dff57610dfe6127da565b5b6006811115610e1157610e106127da565b5b8152602001600582018054610e2590613060565b80601f0160208091040260200160405190810160405280929190818152602001828054610e5190613060565b8015610e9e5780601f10610e7357610100808354040283529160200191610e9e565b820191906000526020600020905b815481529060010190602001808311610e8157829003601f168201915b5050505050815250509050919050565b60036020528060005260406000206000915054906101000a900460ff1681565b6008818051602081018201805184825260208301602085012081835280955050505050506000915090505481565b60046020528060005260406000206000915054906101000a900460ff1681565b60008054906101000a900473ffffffffffffffffffffffffffffffffffffffff1673ffffffffffffffffffffffffffffffffffffffff163373ffffffffffffffffffffffffffffffffffffffff1614610faa576040517f08c379a0000000000000000000000000000000000000000000000000000000008152600401610fa190612ecd565b60405180910390fd5b6001600460008373ffffffffffffffffffffffffffffffffffffffff1673ffffffffffffffffffffffffffffffffffffffff16815260200190815260200160002060006101000a81548160ff0219169083151502179055508073ffffffffffffffffffffffffffffffffffffffff167fb710f7d3e79cb091613cfea70444ea824ad23f2b1297bdea427bc6f097e346a8604051611046906130dd565b60405180910390a250565b60006007600084815260200190815260200160002090503373ffffffffffffffffffffffffffffffffffffffff168160040160009054906101000a900473ffffffffffffffffffffffffffffffffffffffff1673ffffffffffffffffffffffffffffffffffffffff16146110fa576040517f08c379a00000000000000000000000000000000000000000000000000000000081526004016110f190613149565b60405180910390fd5b61110433836122f8565b611143576040517f08c379a000000000000000000000000000000000000000000000000000000000815260040161113a906131b5565b60405180910390fd5b60008160040160149054906101000a900460ff169050600260008473ffffffffffffffffffffffffffffffffffffffff1673ffffffffffffffffffffffffffffffffffffffff16815260200190815260200160002060009054906101000a900460ff16156111b4576004905061120c565b600360008473ffffffffffffffffffffffffffffffffffffffff1673ffffffffffffffffffffffffffffffffffffffff16815260200190815260200160002060009054906101000a900460ff161561120b57600590505b5b6112278260040160149054906101000a900460ff16826120f7565b611266576040517f08c379a000000000000000000000000000000000000000000000000000000000815260040161125d90613221565b60405180910390fd5b60008260040160009054906101000a900473ffffffffffffffffffffffffffffffffffffffff169050838360040160006101000a81548173ffffffffffffffffffffffffffffffffffffffff021916908373ffffffffffffffffffffffffffffffffffffffff160217905550818360040160146101000a81548160ff021916908360068111156112f9576112f86127da565b5b0217905550600b600086815260200190815260200160002060405180606001604052808373ffffffffffffffffffffffffffffffffffffffff1681526020018673ffffffffffffffffffffffffffffffffffffffff16815260200142815250908060018154018082558091505060019003906000526020600020906003020160009091909190915060008201518160000160006101000a81548173ffffffffffffffffffffffffffffffffffffffff021916908373ffffffffffffffffffffffffffffffffffffffff16021790555060208201518160010160006101000a81548173ffffffffffffffffffffffffffffffffffffffff021916908373ffffffffffffffffffffffffffffffffffffffff160217905550604082015181600201555050600a600086815260200190815260200160002060405180604001604052808560040160149054906101000a900460ff16600681111561145d5761145c6127da565b5b815260200142815250908060018154018082558091505060019003906000526020600020906002020160009091909190915060008201518160000160006101000a81548160ff021916908360068111156114ba576114b96127da565b5b02179055506020820151816001015550507f16b85f49bf01212961345d3016c9a531894accf62eb7680f2045d79185cc0ec08582866040516114fe93929190612dec565b60405180910390a17fcf4d4f3dcd5294f4d19269f489155c2187699f4a9fb9004b6a303752b00b282f858460040160149054906101000a900460ff16604051611548929190612e32565b60405180910390a15050505050565b60008054906101000a900473ffffffffffffffffffffffffffffffffffffffff1673ffffffffffffffffffffffffffffffffffffffff163373ffffffffffffffffffffffffffffffffffffffff16146115e5576040517f08c379a00000000000000000000000000000000000000000000000000000000081526004016115dc90612ecd565b60405180910390fd5b6001600260008373ffffffffffffffffffffffffffffffffffffffff1673ffffffffffffffffffffffffffffffffffffffff16815260200190815260200160002060006101000a81548160ff0219169083151502179055508073ffffffffffffffffffffffffffffffffffffffff167fb710f7d3e79cb091613cfea70444ea824ad23f2b1297bdea427bc6f097e346a86040516116819061328d565b60405180910390a250565b60026020528060005260406000206000915054906101000a900460ff1681565b6000600160003373ffffffffffffffffffffffffffffffffffffffff1673ffffffffffffffffffffffffffffffffffffffff16815260200190815260200160002060009054906101000a900460ff1661173a576040517f08c379a00000000000000000000000000000000000000000000000000000000081526004016117319061331f565b60405180910390fd5b60088260405161174a919061337b565b90815260200160405180910390206000815480929190611769906133c1565b91905055506000600883604051611780919061337b565b90815260200160405180910390205490506000600660008154809291906117a6906133c1565b919050559050806009856040516117bd919061337b565b90815260200160405180910390206000848152602001908152602001600020819055506040518060e001604052808281526020018581526020018381526020013373ffffffffffffffffffffffffffffffffffffffff1681526020013373ffffffffffffffffffffffffffffffffffffffff16815260200160006006811115611849576118486127da565b5b8152602001604051806020016040528060008152508152506007600083815260200190815260200160002060008201518160000155602082015181600101908161189391906135b5565b506040820151816002015560608201518160030160006101000a81548173ffffffffffffffffffffffffffffffffffffffff021916908373ffffffffffffffffffffffffffffffffffffffff16021790555060808201518160040160006101000a81548173ffffffffffffffffffffffffffffffffffffffff021916908373ffffffffffffffffffffffffffffffffffffffff16021790555060a08201518160040160146101000a81548160ff02191690836006811115611957576119566127da565b5b021790555060c082015181600501908161197191906135b5565b50905050600a60008281526020019081526020016000206040518060400160405280600060068111156119a7576119a66127da565b5b815260200142815250908060018154018082558091505060019003906000526020600020906002020160009091909190915060008201518160000160006101000a81548160ff02191690836006811115611a0457611a036127da565b5b02179055506020820151816001015550507f706256f465c65c2ea1bc0b3782bb22cc05d6c777184d9e8db44559223dd6730381858433604051611a4a94939291906136c0565b60405180910390a18092505050919050565b600560003373ffffffffffffffffffffffffffffffffffffffff1673ffffffffffffffffffffffffffffffffffffffff16815260200190815260200160002060009054906101000a900460ff16611ae8576040517f08c379a0000000000000000000000000000000000000000000000000000000008152600401611adf9061377e565b60405180910390fd5b611b166007600084815260200190815260200160002060040160149054906101000a900460ff1660016120f7565b611b55576040517f08c379a0000000000000000000000000000000000000000000000000000000008152600401611b4c90612dcc565b60405180910390fd5b60016007600084815260200190815260200160002060040160146101000a81548160ff02191690836006811115611b8f57611b8e6127da565b5b0217905550600a6000838152602001908152602001600020604051806040016040528060016006811115611bc657611bc56127da565b5b815260200142815250908060018154018082558091505060019003906000526020600020906002020160009091909190915060008201518160000160006101000a81548160ff02191690836006811115611c2357611c226127da565b5b02179055506020820151816001015550507fa0594770d5d569311f3325dce04cdb5c813190dfdc38f2b16d05c3dff81c9d4f8282604051611c6592919061379e565b60405180910390a15050565b60056020528060005260406000206000915054906101000a900460ff1681565b600460003373ffffffffffffffffffffffffffffffffffffffff1673ffffffffffffffffffffffffffffffffffffffff16815260200190815260200160002060009054906101000a900460ff16611d1d576040517f08c379a0000000000000000000000000000000000000000000000000000000008152600401611d1490613839565b60405180910390fd5b600081611d2b576003611d2e565b60025b9050611d5d6007600086815260200190815260200160002060040160149054906101000a900460ff16826120f7565b611d9c576040517f08c379a0000000000000000000000000000000000000000000000000000000008152600401611d9390612dcc565b60405180910390fd5b600060076000868152602001908152602001600020905083816005019081611dc491906135b5565b50818160040160146101000a81548160ff02191690836006811115611dec57611deb6127da565b5b0217905550600c6000868152602001908152602001600020604051806060016040528086815260200185151581526020014281525090806001815401808255809150506001900390600052602060002090600302016000909190919091506000820151816000019081611e5f91906135b5565b5060208201518160010160006101000a81548160ff021916908315150217905550604082015181600201555050600a600086815260200190815260200160002060405180604001604052808360040160149054906101000a900460ff166006811115611ece57611ecd6127da565b5b815260200142815250908060018154018082558091505060019003906000526020600020906002020160009091909190915060008201518160000160006101000a81548160ff02191690836006811115611f2b57611f2a6127da565b5b02179055506020820151816001015550507ff1a61d888ad20e6bc34f2faab07c2c4f27a1332ba5ca4ef7afdd0c9eee062538858585604051611f6f93929190613859565b60405180910390a15050505050565b60016020528060005260406000206000915054906101000a900460ff1681565b60008054906101000a900473ffffffffffffffffffffffffffffffffffffffff1681565b60008054906101000a900473ffffffffffffffffffffffffffffffffffffffff1673ffffffffffffffffffffffffffffffffffffffff163373ffffffffffffffffffffffffffffffffffffffff1614612050576040517f08c379a000000000000000000000000000000000000000000000000000000000815260040161204790612ecd565b60405180910390fd5b6001600360008373ffffffffffffffffffffffffffffffffffffffff1673ffffffffffffffffffffffffffffffffffffffff16815260200190815260200160002060006101000a81548160ff0219169083151502179055508073ffffffffffffffffffffffffffffffffffffffff167fb710f7d3e79cb091613cfea70444ea824ad23f2b1297bdea427bc6f097e346a86040516120ec906138e3565b60405180910390a250565b600080600681111561210c5761210b6127da565b5b83600681111561211f5761211e6127da565b5b036121535760016006811115612138576121376127da565b5b82600681111561214b5761214a6127da565b5b1490506122f2565b60016006811115612167576121666127da565b5b83600681111561217a576121796127da565b5b036121dd5760026006811115612193576121926127da565b5b8260068111156121a6576121a56127da565b5b14806121d65750600360068111156121c1576121c06127da565b5b8260068111156121d4576121d36127da565b5b145b90506122f2565b600260068111156121f1576121f06127da565b5b836006811115612204576122036127da565b5b03612238576004600681111561221d5761221c6127da565b5b8260068111156122305761222f6127da565b5b1490506122f2565b6004600681111561224c5761224b6127da565b5b83600681111561225f5761225e6127da565b5b036122935760056006811115612278576122776127da565b5b82600681111561228b5761228a6127da565b5b1490506122f2565b600560068111156122a7576122a66127da565b5b8360068111156122ba576122b96127da565b5b036122ed576006808111156122d2576122d16127da565b5b8260068111156122e5576122e46127da565b5b1490506122f2565b600090505b92915050565b6000600160008473ffffffffffffffffffffffffffffffffffffffff1673ffffffffffffffffffffffffffffffffffffffff16815260200190815260200160002060009054906101000a900460ff16801561239c5750600260008373ffffffffffffffffffffffffffffffffffffffff1673ffffffffffffffffffffffffffffffffffffffff16815260200190815260200160002060009054906101000a900460ff165b156123aa576001905061245f565b600260008473ffffffffffffffffffffffffffffffffffffffff1673ffffffffffffffffffffffffffffffffffffffff16815260200190815260200160002060009054906101000a900460ff16801561244c5750600360008373ffffffffffffffffffffffffffffffffffffffff1673ffffffffffffffffffffffffffffffffffffffff16815260200190815260200160002060009054906101000a900460ff165b1561245a576001905061245f565b600090505b92915050565b6040518060e00160405280600081526020016060815260200160008152602001600073ffffffffffffffffffffffffffffffffffffffff168152602001600073ffffffffffffffffffffffffffffffffffffffff168152602001600060068111156124d3576124d26127da565b5b8152602001606081525090565b6000604051905090565b600080fd5b600080fd5b6000819050919050565b612507816124f4565b811461251257600080fd5b50565b600081359050612524816124fe565b92915050565b6000602082840312156125405761253f6124ea565b5b600061254e84828501612515565b91505092915050565b600073ffffffffffffffffffffffffffffffffffffffff82169050919050565b600061258282612557565b9050919050565b61259281612577565b811461259d57600080fd5b50565b6000813590506125af81612589565b92915050565b6000602082840312156125cb576125ca6124ea565b5b60006125d9848285016125a0565b91505092915050565b600080fd5b600080fd5b6000601f19601f8301169050919050565b7f4e487b7100000000000000000000000000000000000000000000000000000000600052604160045260246000fd5b612635826125ec565b810181811067ffffffffffffffff82111715612654576126536125fd565b5b80604052505050565b60006126676124e0565b9050612673828261262c565b919050565b600067ffffffffffffffff821115612693576126926125fd565b5b61269c826125ec565b9050602081019050919050565b82818337600083830152505050565b60006126cb6126c684612678565b61265d565b9050828152602081018484840111156126e7576126e66125e7565b5b6126f28482856126a9565b509392505050565b600082601f83011261270f5761270e6125e2565b5b813561271f8482602086016126b8565b91505092915050565b6000806040838503121561273f5761273e6124ea565b5b600083013567ffffffffffffffff81111561275d5761275c6124ef565b5b612769858286016126fa565b925050602061277a85828601612515565b9150509250929050565b61278d816124f4565b82525050565b60006020820190506127a86000830184612784565b92915050565b600081519050919050565b600082825260208201905092915050565b6000819050602082019050919050565b7f4e487b7100000000000000000000000000000000000000000000000000000000600052602160045260246000fd5b6007811061281a576128196127da565b5b50565b600081905061282b82612809565b919050565b600061283b8261281d565b9050919050565b61284b81612830565b82525050565b61285a816124f4565b82525050565b6040820160008201516128766000850182612842565b5060208201516128896020850182612851565b50505050565b600061289b8383612860565b60408301905092915050565b6000602082019050919050565b60006128bf826127ae565b6128c981856127b9565b93506128d4836127ca565b8060005b838110156129055781516128ec888261288f565b97506128f7836128a7565b9250506001810190506128d8565b5085935050505092915050565b6000602082019050818103600083015261292c81846128b4565b905092915050565b600081519050919050565b600082825260208201905092915050565b60005b8381101561296e578082015181840152602081019050612953565b60008484015250505050565b600061298582612934565b61298f818561293f565b935061299f818560208601612950565b6129a8816125ec565b840191505092915050565b6129bc81612577565b82525050565b600060e0830160008301516129da6000860182612851565b50602083015184820360208601526129f2828261297a565b9150506040830151612a076040860182612851565b506060830151612a1a60608601826129b3565b506080830151612a2d60808601826129b3565b5060a0830151612a4060a0860182612842565b5060c083015184820360c0860152612a58828261297a565b9150508091505092915050565b60006020820190508181036000830152612a7f81846129c2565b905092915050565b60008115159050919050565b612a9c81612a87565b82525050565b6000602082019050612ab76000830184612a93565b92915050565b600060208284031215612ad357612ad26124ea565b5b600082013567ffffffffffffffff811115612af157612af06124ef565b5b612afd848285016126fa565b91505092915050565b60008060408385031215612b1d57612b1c6124ea565b5b6000612b2b85828601612515565b9250506020612b3c858286016125a0565b9150509250929050565b612b4f81612a87565b8114612b5a57600080fd5b50565b600081359050612b6c81612b46565b92915050565b60008060408385031215612b8957612b886124ea565b5b6000612b9785828601612515565b9250506020612ba885828601612b5d565b9150509250929050565b600080600060608486031215612bcb57612bca6124ea565b5b6000612bd986828701612515565b935050602084013567ffffffffffffffff811115612bfa57612bf96124ef565b5b612c06868287016126fa565b9250506040612c1786828701612b5d565b9150509250925092565b612c2a81612577565b82525050565b6000602082019050612c456000830184612c21565b92915050565b600082825260208201905092915050565b7f4f6e6c792072657461696c65722063616e20706572666f726d2074686973206160008201527f6374696f6e000000000000000000000000000000000000000000000000000000602082015250565b6000612cb8602583612c4b565b9150612cc382612c5c565b604082019050919050565b60006020820190508181036000830152612ce781612cab565b9050919050565b7f4f6e6c792063757272656e74206f776e65722063616e206d61726b206173207360008201527f6f6c640000000000000000000000000000000000000000000000000000000000602082015250565b6000612d4a602383612c4b565b9150612d5582612cee565b604082019050919050565b60006020820190508181036000830152612d7981612d3d565b9050919050565b7f496e76616c696420737461747573206d6f766500000000000000000000000000600082015250565b6000612db6601383612c4b565b9150612dc182612d80565b602082019050919050565b60006020820190508181036000830152612de581612da9565b9050919050565b6000606082019050612e016000830186612784565b612e0e6020830185612c21565b612e1b6040830184612c21565b949350505050565b612e2c81612830565b82525050565b6000604082019050612e476000830185612784565b612e546020830184612e23565b9392505050565b7f4f6e6c792061646d696e2063616e20706572666f726d2074686973206163746960008201527f6f6e000000000000000000000000000000000000000000000000000000000000602082015250565b6000612eb7602283612c4b565b9150612ec282612e5b565b604082019050919050565b60006020820190508181036000830152612ee681612eaa565b9050919050565b7f50726f6475636572000000000000000000000000000000000000000000000000600082015250565b6000612f23600883612c4b565b9150612f2e82612eed565b602082019050919050565b60006020820190508181036000830152612f5281612f16565b9050919050565b7f536c61756768746572686f757365000000000000000000000000000000000000600082015250565b6000612f8f600e83612c4b565b9150612f9a82612f59565b602082019050919050565b60006020820190508181036000830152612fbe81612f82565b9050919050565b7f426174636820646f6573206e6f74206578697374000000000000000000000000600082015250565b6000612ffb601483612c4b565b915061300682612fc5565b602082019050919050565b6000602082019050818103600083015261302a81612fee565b9050919050565b7f4e487b7100000000000000000000000000000000000000000000000000000000600052602260045260246000fd5b6000600282049050600182168061307857607f821691505b60208210810361308b5761308a613031565b5b50919050565b7f48616c616c20417574686f726974790000000000000000000000000000000000600082015250565b60006130c7600f83612c4b565b91506130d282613091565b602082019050919050565b600060208201905081810360008301526130f6816130ba565b9050919050565b7f4f6e6c792063757272656e74206f776e65722063616e207472616e7366657200600082015250565b6000613133601f83612c4b565b915061313e826130fd565b602082019050919050565b6000602082019050818103600083015261316281613126565b9050919050565b7f496e76616c6964207472616e7366657220726f6c657300000000000000000000600082015250565b600061319f601683612c4b565b91506131aa82613169565b602082019050919050565b600060208201905081810360008301526131ce81613192565b9050919050565b7f496e76616c696420737461747573207472616e736974696f6e00000000000000600082015250565b600061320b601983612c4b565b9150613216826131d5565b602082019050919050565b6000602082019050818103600083015261323a816131fe565b9050919050565b7f4469737472696275746f72000000000000000000000000000000000000000000600082015250565b6000613277600b83612c4b565b915061328282613241565b602082019050919050565b600060208201905081810360008301526132a68161326a565b9050919050565b7f4f6e6c792070726f64756365722063616e20706572666f726d2074686973206160008201527f6374696f6e000000000000000000000000000000000000000000000000000000602082015250565b6000613309602583612c4b565b9150613314826132ad565b604082019050919050565b60006020820190508181036000830152613338816132fc565b9050919050565b600081905092915050565b600061335582612934565b61335f818561333f565b935061336f818560208601612950565b80840191505092915050565b6000613387828461334a565b915081905092915050565b7f4e487b7100000000000000000000000000000000000000000000000000000000600052601160045260246000fd5b60006133cc826124f4565b91507fffffffffffffffffffffffffffffffffffffffffffffffffffffffffffffffff82036133fe576133fd613392565b5b600182019050919050565b60008190508160005260206000209050919050565b60006020601f8301049050919050565b600082821b905092915050565b60006008830261346b7fffffffffffffffffffffffffffffffffffffffffffffffffffffffffffffffff8261342e565b613475868361342e565b95508019841693508086168417925050509392505050565b6000819050919050565b60006134b26134ad6134a8846124f4565b61348d565b6124f4565b9050919050565b6000819050919050565b6134cc83613497565b6134e06134d8826134b9565b84845461343b565b825550505050565b600090565b6134f56134e8565b6135008184846134c3565b505050565b5b81811015613524576135196000826134ed565b600181019050613506565b5050565b601f8211156135695761353a81613409565b6135438461341e565b81016020851015613552578190505b61356661355e8561341e565b830182613505565b50505b505050565b600082821c905092915050565b600061358c6000198460080261356e565b1980831691505092915050565b60006135a5838361357b565b9150826002028217905092915050565b6135be82612934565b67ffffffffffffffff8111156135d7576135d66125fd565b5b6135e18254613060565b6135ec828285613528565b600060209050601f83116001811461361f576000841561360d578287015190505b6136178582613599565b86555061367f565b601f19841661362d86613409565b60005b8281101561365557848901518255600182019150602085019450602081019050613630565b86831015613672578489015161366e601f89168261357b565b8355505b6001600288020188555050505b505050505050565b600061369282612934565b61369c8185612c4b565b93506136ac818560208601612950565b6136b5816125ec565b840191505092915050565b60006080820190506136d56000830187612784565b81810360208301526136e78186613687565b90506136f66040830185612784565b6137036060830184612c21565b95945050505050565b7f4f6e6c7920736c61756768746572686f7573652063616e20706572666f726d2060008201527f7468697320616374696f6e000000000000000000000000000000000000000000602082015250565b6000613768602b83612c4b565b91506137738261370c565b604082019050919050565b600060208201905081810360008301526137978161375b565b9050919050565b60006040820190506137b36000830185612784565b6137c06020830184612a93565b9392505050565b7f4f6e6c792068616c616c20617574686f726974792063616e20706572666f726d60008201527f207468697320616374696f6e0000000000000000000000000000000000000000602082015250565b6000613823602c83612c4b565b915061382e826137c7565b604082019050919050565b6000602082019050818103600083015261385281613816565b9050919050565b600060608201905061386e6000830186612784565b81810360208301526138808185613687565b905061388f6040830184612a93565b949350505050565b7f52657461696c6572000000000000000000000000000000000000000000000000600082015250565b60006138cd600883612c4b565b91506138d882613897565b602082019050919050565b600060208201905081810360008301526138fc816138c0565b905091905056fea26469706673582212208e30884ebecf1d439938009e384c14b41089a0c1afa80a2e96f57ef95d5327e464736f6c634300081c0033",
  "linkReferences": {},
  "deployedLinkReferences": {}
}