{
  "_format": "hh-sol-artifact-1",
  "contractName": "HalalSupplyChain",
  "sourceName": "contracts/HalalSupplyChain.sol",
  "abi": [
    {
      "inputs": [],
      "stateMutability": "nonpayable",
      "type": "constructor"
    },
    {
      "anonymous": false,
      "inputs": [
        {
          "indexed": false,
          "internalType": "uint256",
          "name": "batchId",
          "type": "uint256"
        },
        {
          "indexed": false,
          "internalType": "string",
          "name": "name",
          "type": "string"
        },
        {
          "indexed": false,
          "internalType": "address",
          "name": "producer",
          "type": "address"
        }
      ],
      "name": "BatchCreated",
      "type": "event"
    },
    {
      "anonymous": false,
      "inputs": [
        {
          "indexed": false,
          "internalType": "uint256",
          "name": "batchId",
          "type": "uint256"
        },
        {
          "indexed": false,
          "internalType": "enum HalalSupplyChain.BatchStatus",
          "name": "newStatus",
          "type": "uint8"
        }
      ],
      "name": "BatchStatusUpdated",
      "type": "event"
    },
    {
      "anonymous": false,
      "inputs": [
        {
          "indexed": false,
          "internalType": "uint256",
          "name": "batchId",
          "type": "uint256"
        },
        {
          "indexed": false,
          "internalType": "string",
          "name": "certificateHash",
          "type": "string"
        },
        {
          "indexed": false,
          "internalType": "bool",
          "name": "isHalal",
          "type": "bool"
        }
      ],
      "name": "HalalCertificateSet",
      "type": "event"
    },
    {
      "anonymous": false,
      "inputs": [
        {
          "indexed": false,
          "internalType": "uint256",
          "name": "batchId",
          "type": "uint256"
        },
        {
          "indexed": false,
          "internalType": "bool",
          "name": "isHalal",
          "type": "bool"
        }
      ],
      "name": "HalalSlaughterVerified",
      "type": "event"
    },
    {
      "anonymous": false,
      "inputs": [
        {
          "indexed": false,
          "internalType": "uint256",
          "name": "batchId",
          "type": "uint256"
        },
        {
          "indexed": false,
          "internalType": "address",
          "name": "from",
          "type": "address"
        },
        {
          "indexed": false,
          "internalType": "address",
          "name": "to",
          "type": "address"
        }
      ],
      "name": "OwnershipTransferred",
      "type": "event"
    },
    {
      "anonymous": false,
      "inputs": [
        {
          "indexed": true,
          "internalType": "address",
          "name": "account",
          "type": "address"
        },
        {
          "indexed": false,
          "internalType": "string",
          "name": "role",
          "type": "string"
        }
      ],
      "name": "RoleGranted",
      "type": "event"
    },
    {
      "anonymous": false,
      "inputs": [
        {
          "indexed": true,
          "internalType": "address",
          "name": "account",
          "type": "address"
        },
        {
          "indexed": false,
          "internalType": "string",
          "name": "role",
          "type": "string"
        }
      ],
      "name": "RoleRevoked",
      "type": "event"
    },
    {
      "anonymous": false,
      "inputs": [
        {
          "indexed": false,
          "internalType": "uint256",
          "name": "batchId",
          "type": "uint256"
        },
        {
          "indexed": false,
          "internalType": "bool",
          "name": "isHalal",
          "type": "bool"
        }
      ],
      "name": "SlaughterRecorded",
      "type": "event"
    },
    {
      "inputs": [],
      "name": "admin",
      "outputs": [
        {
          "internalType": "address",
          "name": "",
          "type": "address"
        }
      ],
      "stateMutability": "view",
      "type": "function"
    },
    {
      "inputs": [
        {
          "internalType": "string",
          "name": "name",
          "type": "string"
        }
      ],
      "name": "createBatch",
      "outputs": [
        {
          "internalType": "uint256",
          "name": "",
          "type": "uint256"
        }
      ],
      "stateMutability": "nonpayable",
      "type": "function"
    },
    {
      "inputs": [
        {
          "internalType": "uint256",
          "name": "batchId",
          "type": "uint256"
        }
      ],
      "name": "getBatch",
      "outputs": [
        {
          "components": [
            {
              "internalType": "uint256",
              "name": "id",
              "type": "uint256"
            },
            {
              "internalType": "string",
              "name": "name",
              "type": "string"
            },
            {
              "internalType": "address",
              "name": "currentOwner",
              "type": "address"
            },
            {
              "internalType": "enum HalalSupplyChain.BatchStatus",
              "name": "status",
              "type": "uint8"
            },
            {
              "internalType": "string",
              "name": "certificateHash",
              "type": "string"
            }
          ],
          "internalType": "struct HalalSupplyChain.Batch",
          "name": "",
          "type": "tuple"
        }
      ],
      "stateMutability": "view",
      "type": "function"
    },
    {
      "inputs": [
        {
          "internalType": "uint256",
          "name": "batchId",
          "type": "uint256"
        }
      ],
      "name": "getCertificateHistory",
      "outputs": [
        {
          "components": [
            {
              "internalType": "string",
              "name": "certificateHash",
              "type": "string"
            },
            {
              "internalType": "bool",
              "name": "isHalal",
              "type": "bool"
            },
            {
              "internalType": "uint256",
              "name": "certifiedAt",
              "type": "uint256"
            }
          ],
          "internalType": "struct HalalSupplyChain.CertificateRecord[]",
          "name": "",
          "type": "tuple[]"
        }
      ],
      "stateMutability": "view",
      "type": "function"
    },
    {
      "inputs": [
        {
          "internalType": "uint256",
          "name": "batchId",
          "type": "uint256"
        }
      ],
      "name": "getStatusHistory",
      "outputs": [
        {
          "components": [
            {
              "internalType": "enum HalalSupplyChain.BatchStatus",
              "name": "newStatus",
              "type": "uint8"
            },
            {
              "internalType": "uint256",
              "name": "changedAt",
              "type": "uint256"
            }
          ],
          "internalType": "struct HalalSupplyChain.StatusChange[]",
          "name": "",
          "type": "tuple[]"
        }
      ],
      "stateMutability": "view",
      "type": "function"
    },
    {
      "inputs": [
        {
          "internalType": "uint256",
          "name": "batchId",
          "type": "uint256"
        }
      ],
      "name": "getTransferHistory",
      "outputs": [
        {
          "components": [
            {
              "internalType": "address",
              "name": "from",
              "type": "address"
            },
            {
              "internalType": "address",
              "name": "to",
              "type": "address"
            },
            {
              "internalType": "uint256",
              "name": "transferredAt",
              "type": "uint256"
            }
          ],
          "internalType": "struct HalalSupplyChain.TransferRecord[]",
          "name": "",
          "type": "tuple[]"
        }
      ],
      "stateMutability": "view",
      "type": "function"
    },
    {
      "inputs": [
        {
          "internalType": "address",
          "name": "account",
          "type": "address"
        }
      ],
      "name": "grantDistributorRole",
      "outputs": [],
      "stateMutability": "nonpayable",
      "type": "function"
    },
    {
      "inputs": [
        {
          "internalType": "address",
          "name": "account",
          "type": "address"
        }
      ],
      "name": "grantHalalAuthorityRole",
      "outputs": [],
      "stateMutability": "nonpayable",
      "type": "function"
    },
    {
      "inputs": [
        {
          "internalType": "address",
          "name": "account",
          "type": "address"
        }
      ],
      "name": "grantProducerRole",
      "outputs": [],
      "stateMutability": "nonpayable",
      "type": "function"
    },
    {
      "inputs": [
        {
          "internalType": "address",
          "name": "account",
          "type": "address"
        }
      ],
      "name": "grantRetailerRole",
      "outputs": [],
      "stateMutability": "nonpayable",
      "type": "function"
    },
    {
      "inputs": [
        {
          "internalType": "address",
          "name": "account",
          "type": "address"
        }
      ],
      "name": "grantSlaughterhouseRole",
      "outputs": [],
      "stateMutability": "nonpayable",
      "type": "function"
    },
    {
      "inputs": [
        {
          "internalType": "address",
          "name": "",
          "type": "address"
        }
      ],
      "name": "isDistributor",
      "outputs": [
        {
          "internalType": "bool",
          "name": "",
          "type": "bool"
        }
      ],
      "stateMutability": "view",
      "type": "function"
    },
    {
      "inputs": [
        {
          "internalType": "address",
          "name": "",
          "type": "address"
        }
      ],
      "name": "isHalalAuthority",
      "outputs": [
        {
          "internalType": "bool",
          "name": "",
          "type": "bool"
        }
      ],
      "stateMutability": "view",
      "type": "function"
    },
    {
      "inputs": [
        {
          "internalType": "address",
          "name": "",
          "type": "address"
        }
      ],
      "name": "isProducer",
      "outputs": [
        {
          "internalType": "bool",
          "name": "",
          "type": "bool"
        }
      ],
      "stateMutability": "view",
      "type": "function"
    },
    {
      "inputs": [
        {
          "internalType": "address",
          "name": "",
          "type": "address"
        }
      ],
      "name": "isRetailer",
      "outputs": [
        {
          "internalType": "bool",
          "name": "",
          "type": "bool"
        }
      ],
      "stateMutability": "view",
      "type": "function"
    },
    {
      "inputs": [
        {
          "internalType": "address",
          "name": "",
          "type": "address"
        }
      ],
      "name": "isSlaughterhouse",
      "outputs": [
        {
          "internalType": "bool",
          "name": "",
          "type": "bool"
        }
      ],
      "stateMutability": "view",
      "type": "function"
    },
    {
      "inputs": [
        {
          "internalType": "uint256",
          "name": "batchId",
          "type": "uint256"
        }
      ],
      "name": "processBatch",
      "outputs": [],
      "stateMutability": "nonpayable",
      "type": "function"
    },
    {
      "inputs": [
        {
          "internalType": "uint256",
          "name": "batchId",
          "type": "uint256"
        },
        {
          "internalType": "bool",
          "name": "isHalal",
          "type": "bool"
        }
      ],
      "name": "recordSlaughter",
      "outputs": [],
      "stateMutability": "nonpayable",
      "type": "function"
    },
    {
      "inputs": [
        {
          "internalType": "address",
          "name": "account",
          "type": "address"
        }
      ],
      "name": "revokeDistributorRole",
      "outputs": [],
      "stateMutability": "nonpayable",
      "type": "function"
    },
    {
      "inputs": [
        {
          "internalType": "address",
          "name": "account",
          "type": "address"
        }
      ],
      "name": "revokeHalalAuthorityRole",
      "outputs": [],
      "stateMutability": "nonpayable",
      "type": "function"
    },
    {
      "inputs": [
        {
          "internalType": "address",
          "name": "account",
          "type": "address"
        }
      ],
      "name": "revokeProducerRole",
      "outputs": [],
      "stateMutability": "nonpayable",
      "type": "function"
    },
    {
      "inputs": [
        {
          "internalType": "address",
          "name": "account",
          "type": "address"
        }
      ],
      "name": "revokeRetailerRole",
      "outputs": [],
      "stateMutability": "nonpayable",
      "type": "function"
    },
    {
      "inputs": [
        {
          "internalType": "address",
          "name": "account",
          "type": "address"
        }
      ],
      "name": "revokeSlaughterhouseRole",
      "outputs": [],
      "stateMutability": "nonpayable",
      "type": "function"
    },
    {
      "inputs": [
        {
          "internalType": "uint256",
          "name": "batchId",
          "type": "uint256"
        },
        {
          "internalType": "string",
          "name": "certificateHash",
          "type": "string"
        },
        {
          "internalType": "bool",
          "name": "isHalal",
          "type": "bool"
        }
      ],
      "name": "setHalalCertificate",
      "outputs": [],
      "stateMutability": "nonpayable",
      "type": "function"
    },
    {
      "inputs": [
        {
          "internalType": "uint256",
          "name": "batchId",
          "type": "uint256"
        },
        {
          "internalType": "address",
          "name": "newOwner",
          "type": "address"
        }
      ],
      "name": "transferBatchOwnership",
      "outputs": [],
      "stateMutability": "nonpayable",
      "type": "function"
    },
    {
      "inputs": [
        {
          "internalType": "uint256",
          "name": "batchId",
          "type": "uint256"
        },
        {
          "internalType": "enum HalalSupplyChain.BatchStatus",
          "name": "newStatus",
          "type": "uint8"
        }
      ],
      "name": "updateBatchStatus",
      "outputs": [],
      "stateMutability": "nonpayable",
      "type": "function"
    },
    {
      "inputs": [
        {
          "internalType": "uint256",
          "name": "batchId",
          "type": "uint256"
        },
        {
          "internalType": "bool",
          "name": "isHalal",
          "type": "bool"
        }
      ],
      "name": "verifyHalalSlaughter",
      "outputs": [],
      "stateMutability": "nonpayable",
      "type": "function"
    }
  ],
  "bytecode": "0x60806040526001600655348015601457600080fd5b50336000806101000a81548173ffffffffffffffffffffffffffffffffffffffff021916908373ffffffffffffffffffffffffffffffffffffffff160217905550614a84806100646000396000f3fe608060405234801561001057600080fd5b50600436106101a95760003560e01c806384bc62d7116100f957806394426cd711610097578063e9e312c011610071578063e9e312c0146104d2578063f552102214610502578063f851a44014610532578063f9f806e114610550576101a9565b806394426cd71461046a578063b18c634c14610486578063bbecdaa7146104b6576101a9565b80638bba2a0a116100d35780638bba2a0a146103d25780638f0c86fa146103ee57806392e314c31461041e57806392f82abd1461043a576101a9565b806384bc62d71461036a5780638b49255a146103865780638bb27d02146103a2576101a9565b806352c88f36116101665780635da09b88116101405780635da09b88146102d257806361a5c913146103025780636309463b146103325780636e4e599c1461034e576101a9565b806352c88f361461025657806358a20b3b146102725780635ac44282146102a2576101a9565b806317485f42146101ae57806318c8ea30146101ca5780632d14145e146101e657806342fdb50414610202578063464f96491461021e5780635286fe141461023a575b600080fd5b6101c860048036038101906101c3919061315f565b61056c565b005b6101e460048036038101906101df919061315f565b6106a1565b005b61020060048036038101906101fb919061315f565b6107d6565b005b61021c6004803603810190610217919061315f565b610979565b005b6102386004803603810190610233919061315f565b610aae565b005b610254600480360381019061024f919061315f565b610c52565b005b610270600480360381019061026b91906131e7565b610d87565b005b61028c60048036038101906102879190613227565b610fda565b60405161029991906133b8565b60405180910390f35b6102bc60048036038101906102b79190613227565b6110ea565b6040516102c991906134f6565b60405180910390f35b6102ec60048036038101906102e7919061315f565b61132f565b6040516102f99190613533565b60405180910390f35b61031c6004803603810190610317919061315f565b61134f565b6040516103299190613533565b60405180910390f35b61034c60048036038101906103479190613227565b61136f565b005b6103686004803603810190610363919061315f565b61148b565b005b610384600480360381019061037f919061354e565b61162f565b005b6103a0600480360381019061039b91906135ba565b611a19565b005b6103bc60048036038101906103b79190613227565b611c9d565b6040516103c991906136eb565b60405180910390f35b6103ec60048036038101906103e7919061315f565b611e1e565b005b6104086004803603810190610403919061315f565b611fc2565b6040516104159190613533565b60405180910390f35b6104386004803603810190610433919061315f565b611fe2565b005b610454600480360381019061044f9190613842565b612117565b604051610461919061389a565b60405180910390f35b610484600480360381019061047f91906135ba565b61236a565b005b6104a0600480360381019061049b919061315f565b6125d7565b6040516104ad9190613533565b60405180910390f35b6104d060048036038101906104cb91906138b5565b6125f7565b005b6104ec60048036038101906104e79190613227565b6129bf565b6040516104f99190613a45565b60405180910390f35b61051c6004803603810190610517919061315f565b612b41565b6040516105299190613533565b60405180910390f35b61053a612b61565b6040516105479190613a76565b60405180910390f35b61056a6004803603810190610565919061315f565b612b85565b005b60008054906101000a900473ffffffffffffffffffffffffffffffffffffffff1673ffffffffffffffffffffffffffffffffffffffff163373ffffffffffffffffffffffffffffffffffffffff16146105fa576040517f08c379a00000000000000000000000000000000000000000000000000000000081526004016105f190613b14565b60405180910390fd5b6000600360008373ffffffffffffffffffffffffffffffffffffffff1673ffffffffffffffffffffffffffffffffffffffff16815260200190815260200160002060006101000a81548160ff0219169083151502179055508073ffffffffffffffffffffffffffffffffffffffff167f9f43a01c0d4ff5aff09b3b9b472df707ceefd3f948f8942f10fa1562a892130460405161069690613b80565b60405180910390a250565b60008054906101000a900473ffffffffffffffffffffffffffffffffffffffff1673ffffffffffffffffffffffffffffffffffffffff163373ffffffffffffffffffffffffffffffffffffffff161461072f576040517f08c379a000000000000000000000000000000000000000000000000000000000815260040161072690613b14565b60405180910390fd5b6000600260008373ffffffffffffffffffffffffffffffffffffffff1673ffffffffffffffffffffffffffffffffffffffff16815260200190815260200160002060006101000a81548160ff0219169083151502179055508073ffffffffffffffffffffffffffffffffffffffff167f9f43a01c0d4ff5aff09b3b9b472df707ceefd3f948f8942f10fa1562a89213046040516107cb90613bec565b60405180910390a250565b60008054906101000a900473ffffffffffffffffffffffffffffffffffffffff1673ffffffffffffffffffffffffffffffffffffffff163373ffffffffffffffffffffffffffffffffffffffff1614610864576040517f08c379a000000000000000000000000000000000000000000000000000000000815260040161085b90613b14565b60405180910390fd5b600073ffffffffffffffffffffffffffffffffffffffff168173ffffffffffffffffffffffffffffffffffffffff16036108d3576040517f08c379a00000000000000000000000000000000000000000000000000000000081526004016108ca90613c7e565b60405180910390fd5b60018060008373ffffffffffffffffffffffffffffffffffffffff1673ffffffffffffffffffffffffffffffffffffffff16815260200190815260200160002060006101000a81548160ff0219169083151502179055508073ffffffffffffffffffffffffffffffffffffffff167fb710f7d3e79cb091613cfea70444ea824ad23f2b1297bdea427bc6f097e346a860405161096e90613cea565b60405180910390a250565b60008054906101000a900473ffffffffffffffffffffffffffffffffffffffff1673ffffffffffffffffffffffffffffffffffffffff163373ffffffffffffffffffffffffffffffffffffffff1614610a07576040517f08c379a00000000000000000000000000000000000000000000000000000000081526004016109fe90613b14565b60405180910390fd5b6000600460008373ffffffffffffffffffffffffffffffffffffffff1673ffffffffffffffffffffffffffffffffffffffff16815260200190815260200160002060006101000a81548160ff0219169083151502179055508073ffffffffffffffffffffffffffffffffffffffff167f9f43a01c0d4ff5aff09b3b9b472df707ceefd3f948f8942f10fa1562a8921304604051610aa390613d56565b60405180910390a250565b60008054906101000a900473ffffffffffffffffffffffffffffffffffffffff1673ffffffffffffffffffffffffffffffffffffffff163373ffffffffffffffffffffffffffffffffffffffff1614610b3c576040517f08c379a0000000000000000000000000000000000000000000000000000000008152600401610b3390613b14565b60405180910390fd5b600073ffffffffffffffffffffffffffffffffffffffff168173ffffffffffffffffffffffffffffffffffffffff1603610bab576040517f08c379a0000000000000000000000000000000000000000000000000000000008152600401610ba290613c7e565b60405180910390fd5b6001600560008373ffffffffffffffffffffffffffffffffffffffff1673ffffffffffffffffffffffffffffffffffffffff16815260200190815260200160002060006101000a81548160ff0219169083151502179055508073ffffffffffffffffffffffffffffffffffffffff167fb710f7d3e79cb091613cfea70444ea824ad23f2b1297bdea427bc6f097e346a8604051610c4790613dc2565b60405180910390a250565b60008054906101000a900473ffffffffffffffffffffffffffffffffffffffff1673ffffffffffffffffffffffffffffffffffffffff163373ffffffffffffffffffffffffffffffffffffffff1614610ce0576040517f08c379a0000000000000000000000000000000000000000000000000000000008152600401610cd790613b14565b60405180910390fd5b6000600160008373ffffffffffffffffffffffffffffffffffffffff1673ffffffffffffffffffffffffffffffffffffffff16815260200190815260200160002060006101000a81548160ff0219169083151502179055508073ffffffffffffffffffffffffffffffffffffffff167f9f43a01c0d4ff5aff09b3b9b472df707ceefd3f948f8942f10fa1562a8921304604051610d7c90613cea565b60405180910390a250565b60006007600084815260200190815260200160002090506000816000015403610de5576040517f08c379a0000000000000000000000000000000000000000000000000000000008152600401610ddc90613e2e565b60405180910390fd5b3373ffffffffffffffffffffffffffffffffffffffff168160020160009054906101000a900473ffffffffffffffffffffffffffffffffffffffff1673ffffffffffffffffffffffffffffffffffffffff1614610e77576040517f08c379a0000000000000000000000000000000000000000000000000000000008152600401610e6e90613ec0565b60405180910390fd5b610e928160020160149054906101000a900460ff1683612d29565b610ed1576040517f08c379a0000000000000000000000000000000000000000000000000000000008152600401610ec890613f2c565b60405180910390fd5b818160020160146101000a81548160ff02191690836006811115610ef857610ef7613280565b5b0217905550600860008481526020019081526020016000206040518060400160405280846006811115610f2e57610f2d613280565b5b815260200142815250908060018154018082558091505060019003906000526020600020906002020160009091909190915060008201518160000160006101000a81548160ff02191690836006811115610f8b57610f8a613280565b5b02179055506020820151816001015550507fcf4d4f3dcd5294f4d19269f489155c2187699f4a9fb9004b6a303752b00b282f8383604051610fcd929190613f5b565b60405180910390a1505050565b60606000600760008481526020019081526020016000206000015403611035576040517f08c379a000000000000000000000000000000000000000000000000000000000815260040161102c90613e2e565b60405180910390fd5b60086000838152602001908152602001600020805480602002602001604051908101604052809291908181526020016000905b828210156110df57838290600052602060002090600202016040518060400160405290816000820160009054906101000a900460ff1660068111156110b0576110af613280565b5b60068111156110c2576110c1613280565b5b815260200160018201548152505081526020019060010190611068565b505050509050919050565b6110f2613096565b600060076000848152602001908152602001600020600001540361114b576040517f08c379a000000000000000000000000000000000000000000000000000000000815260040161114290613e2e565b60405180910390fd5b600760008381526020019081526020016000206040518060a00160405290816000820154815260200160018201805461118390613fb3565b80601f01602080910402602001604051908101604052809291908181526020018280546111af90613fb3565b80156111fc5780601f106111d1576101008083540402835291602001916111fc565b820191906000526020600020905b8154815290600101906020018083116111df57829003601f168201915b505050505081526020016002820160009054906101000a900473ffffffffffffffffffffffffffffffffffffffff1673ffffffffffffffffffffffffffffffffffffffff1673ffffffffffffffffffffffffffffffffffffffff1681526020016002820160149054906101000a900460ff1660068111156112805761127f613280565b5b600681111561129257611291613280565b5b81526020016003820180546112a690613fb3565b80601f01602080910402602001604051908101604052809291908181526020018280546112d290613fb3565b801561131f5780601f106112f45761010080835404028352916020019161131f565b820191906000526020600020905b81548152906001019060200180831161130257829003601f168201915b5050505050815250509050919050565b60036020528060005260406000206000915054906101000a900460ff1681565b60046020528060005260406000206000915054906101000a900460ff1681565b600560003373ffffffffffffffffffffffffffffffffffffffff1673ffffffffffffffffffffffffffffffffffffffff16815260200190815260200160002060009054906101000a900460ff166113fb576040517f08c379a00000000000000000000000000000000000000000000000000000000081526004016113f290614056565b60405180910390fd5b600b600082815260200190815260200160002060009054906101000a900460ff161561145c576040517f08c379a0000000000000000000000000000000000000000000000000000000008152600401611453906140c2565b60405180910390fd5b6001600b600083815260200190815260200160002060006101000a81548160ff02191690831515021790555050565b60008054906101000a900473ffffffffffffffffffffffffffffffffffffffff1673ffffffffffffffffffffffffffffffffffffffff163373ffffffffffffffffffffffffffffffffffffffff1614611519576040517f08c379a000000000000000000000000000000000000000000000000000000000815260040161151090613b14565b60405180910390fd5b600073ffffffffffffffffffffffffffffffffffffffff168173ffffffffffffffffffffffffffffffffffffffff1603611588576040517f08c379a000000000000000000000000000000000000000000000000000000000815260040161157f90613c7e565b60405180910390fd5b6001600460008373ffffffffffffffffffffffffffffffffffffffff1673ffffffffffffffffffffffffffffffffffffffff16815260200190815260200160002060006101000a81548160ff0219169083151502179055508073ffffffffffffffffffffffffffffffffffffffff167fb710f7d3e79cb091613cfea70444ea824ad23f2b1297bdea427bc6f097e346a860405161162490613d56565b60405180910390a250565b6000600760008481526020019081526020016000209050600081600001540361168d576040517f08c379a000000000000000000000000000000000000000000000000000000000815260040161168490613e2e565b60405180910390fd5b3373ffffffffffffffffffffffffffffffffffffffff168160020160009054906101000a900473ffffffffffffffffffffffffffffffffffffffff1673ffffffffffffffffffffffffffffffffffffffff161461171f576040517f08c379a00000000000000000000000000000000000000000000000000000000081526004016117169061412e565b60405180910390fd5b600073ffffffffffffffffffffffffffffffffffffffff168273ffffffffffffffffffffffffffffffffffffffff160361178e576040517f08c379a00000000000000000000000000000000000000000000000000000000081526004016117859061419a565b60405180910390fd5b600360068111156117a2576117a1613280565b5b8160020160149054906101000a900460ff1660068111156117c6576117c5613280565b5b03611806576040517f08c379a00000000000000000000000000000000000000000000000000000000081526004016117fd90614206565b60405180910390fd5b6118103383612f2a565b61184f576040517f08c379a000000000000000000000000000000000000000000000000000000000815260040161184690614272565b60405180910390fd5b60008160020160009054906101000a900473ffffffffffffffffffffffffffffffffffffffff169050828260020160006101000a81548173ffffffffffffffffffffffffffffffffffffffff021916908373ffffffffffffffffffffffffffffffffffffffff1602179055506009600085815260200190815260200160002060405180606001604052808373ffffffffffffffffffffffffffffffffffffffff1681526020018573ffffffffffffffffffffffffffffffffffffffff16815260200142815250908060018154018082558091505060019003906000526020600020906003020160009091909190915060008201518160000160006101000a81548173ffffffffffffffffffffffffffffffffffffffff021916908373ffffffffffffffffffffffffffffffffffffffff16021790555060208201518160010160006101000a81548173ffffffffffffffffffffffffffffffffffffffff021916908373ffffffffffffffffffffffffffffffffffffffff1602179055506040820151816002015550507f16b85f49bf01212961345d3016c9a531894accf62eb7680f2045d79185cc0ec0848285604051611a0b93929190614292565b60405180910390a150505050565b600460003373ffffffffffffffffffffffffffffffffffffffff1673ffffffffffffffffffffffffffffffffffffffff16815260200190815260200160002060009054906101000a900460ff16611aa5576040517f08c379a0000000000000000000000000000000000000000000000000000000008152600401611a9c9061433b565b60405180910390fd5b60006007600084815260200190815260200160002090506000816000015403611b03576040517f08c379a0000000000000000000000000000000000000000000000000000000008152600401611afa90613e2e565b60405180910390fd5b60016006811115611b1757611b16613280565b5b8160020160149054906101000a900460ff166006811115611b3b57611b3a613280565b5b14611b7b576040517f08c379a0000000000000000000000000000000000000000000000000000000008152600401611b72906143cd565b60405180910390fd5b600a6000848152602001908152602001600020604051806060016040528060405180602001604052806000815250815260200184151581526020014281525090806001815401808255809150506001900390600052602060002090600302016000909190919091506000820151816000019081611bf89190614599565b5060208201518160010160006101000a81548160ff02191690831515021790555060408201518160020155505081611c31576003611c34565b60025b8160020160146101000a81548160ff02191690836006811115611c5a57611c59613280565b5b02179055507fbcdd9b11296bc7094352af37f6bbf20e39e099328a808895eb30735af9b686758383604051611c9092919061466b565b60405180910390a1505050565b60606000600760008481526020019081526020016000206000015403611cf8576040517f08c379a0000000000000000000000000000000000000000000000000000000008152600401611cef90613e2e565b60405180910390fd5b60096000838152602001908152602001600020805480602002602001604051908101604052809291908181526020016000905b82821015611e1357838290600052602060002090600302016040518060600160405290816000820160009054906101000a900473ffffffffffffffffffffffffffffffffffffffff1673ffffffffffffffffffffffffffffffffffffffff1673ffffffffffffffffffffffffffffffffffffffff1681526020016001820160009054906101000a900473ffffffffffffffffffffffffffffffffffffffff1673ffffffffffffffffffffffffffffffffffffffff1673ffffffffffffffffffffffffffffffffffffffff16815260200160028201548152505081526020019060010190611d2b565b505050509050919050565b60008054906101000a900473ffffffffffffffffffffffffffffffffffffffff1673ffffffffffffffffffffffffffffffffffffffff163373ffffffffffffffffffffffffffffffffffffffff1614611eac576040517f08c379a0000000000000000000000000000000000000000000000000000000008152600401611ea390613b14565b60405180910390fd5b600073ffffffffffffffffffffffffffffffffffffffff168173ffffffffffffffffffffffffffffffffffffffff1603611f1b576040517f08c379a0000000000000000000000000000000000000000000000000000000008152600401611f1290613c7e565b60405180910390fd5b6001600260008373ffffffffffffffffffffffffffffffffffffffff1673ffffffffffffffffffffffffffffffffffffffff16815260200190815260200160002060006101000a81548160ff0219169083151502179055508073ffffffffffffffffffffffffffffffffffffffff167fb710f7d3e79cb091613cfea70444ea824ad23f2b1297bdea427bc6f097e346a8604051611fb790613bec565b60405180910390a250565b60026020528060005260406000206000915054906101000a900460ff1681565b60008054906101000a900473ffffffffffffffffffffffffffffffffffffffff1673ffffffffffffffffffffffffffffffffffffffff163373ffffffffffffffffffffffffffffffffffffffff1614612070576040517f08c379a000000000000000000000000000000000000000000000000000000000815260040161206790613b14565b60405180910390fd5b6000600560008373ffffffffffffffffffffffffffffffffffffffff1673ffffffffffffffffffffffffffffffffffffffff16815260200190815260200160002060006101000a81548160ff0219169083151502179055508073ffffffffffffffffffffffffffffffffffffffff167f9f43a01c0d4ff5aff09b3b9b472df707ceefd3f948f8942f10fa1562a892130460405161210c90613dc2565b60405180910390a250565b6000600160003373ffffffffffffffffffffffffffffffffffffffff1673ffffffffffffffffffffffffffffffffffffffff16815260200190815260200160002060009054906101000a900460ff166121a5576040517f08c379a000000000000000000000000000000000000000000000000000000000815260040161219c90614706565b60405180910390fd5b60008251116121e9576040517f08c379a00000000000000000000000000000000000000000000000000000000081526004016121e090614772565b60405180910390fd5b6000600660008154809291906121fe906147c1565b9190505590506040518060a001604052808281526020018481526020013373ffffffffffffffffffffffffffffffffffffffff1681526020016000600681111561224b5761224a613280565b5b815260200160405180602001604052806000815250815250600760008381526020019081526020016000206000820151816000015560208201518160010190816122959190614599565b5060408201518160020160006101000a81548173ffffffffffffffffffffffffffffffffffffffff021916908373ffffffffffffffffffffffffffffffffffffffff16021790555060608201518160020160146101000a81548160ff0219169083600681111561230857612307613280565b5b021790555060808201518160030190816123229190614599565b509050507f195a26ecf0c9b8fb957ecc3a7c029ce84849279de600e16f205ee789052052b681843360405161235993929190614842565b60405180910390a180915050919050565b600560003373ffffffffffffffffffffffffffffffffffffffff1673ffffffffffffffffffffffffffffffffffffffff16815260200190815260200160002060009054906101000a900460ff166123f6576040517f08c379a00000000000000000000000000000000000000000000000000000000081526004016123ed90614056565b60405180910390fd5b60006007600084815260200190815260200160002090506000816000015403612454576040517f08c379a000000000000000000000000000000000000000000000000000000000815260040161244b90613e2e565b60405180910390fd5b6000600681111561246857612467613280565b5b8160020160149054906101000a900460ff16600681111561248c5761248b613280565b5b146124cc576040517f08c379a00000000000000000000000000000000000000000000000000000000081526004016124c3906148f2565b60405180910390fd5b60018160020160146101000a81548160ff021916908360068111156124f4576124f3613280565b5b02179055506008600084815260200190815260200160002060405180604001604052806001600681111561252b5761252a613280565b5b815260200142815250908060018154018082558091505060019003906000526020600020906002020160009091909190915060008201518160000160006101000a81548160ff0219169083600681111561258857612587613280565b5b02179055506020820151816001015550507fa0594770d5d569311f3325dce04cdb5c813190dfdc38f2b16d05c3dff81c9d4f83836040516125ca92919061466b565b60405180910390a1505050565b60056020528060005260406000206000915054906101000a900460ff1681565b600460003373ffffffffffffffffffffffffffffffffffffffff1673ffffffffffffffffffffffffffffffffffffffff16815260200190815260200160002060009054906101000a900460ff16612683576040517f08c379a000000000000000000000000000000000000000000000000000000000815260040161267a9061433b565b60405180910390fd5b600060076000858152602001908152602001600020905060008160000154036126e1576040517f08c379a00000000000000000000000000000000000000000000000000000000081526004016126d890613e2e565b60405180910390fd5b600160068111156126f5576126f4613280565b5b8160020160149054906101000a900460ff16600681111561271957612718613280565b5b14612759576040517f08c379a000000000000000000000000000000000000000000000000000000000815260040161275090614984565b60405180910390fd5b600083511161279d576040517f08c379a0000000000000000000000000000000000000000000000000000000008152600401612794906149f0565b60405180910390fd5b828160030190816127ae9190614599565b50816127bb5760036127be565b60025b8160020160146101000a81548160ff021916908360068111156127e4576127e3613280565b5b0217905550600a60008581526020019081526020016000206040518060600160405280858152602001841515815260200142815250908060018154018082558091505060019003906000526020600020906003020160009091909190915060008201518160000190816128579190614599565b5060208201518160010160006101000a81548160ff0219169083151502179055506040820151816002015550506008600085815260200190815260200160002060405180604001604052808360020160149054906101000a900460ff1660068111156128c6576128c5613280565b5b815260200142815250908060018154018082558091505060019003906000526020600020906002020160009091909190915060008201518160000160006101000a81548160ff0219169083600681111561292357612922613280565b5b02179055506020820151816001015550507ff1a61d888ad20e6bc34f2faab07c2c4f27a1332ba5ca4ef7afdd0c9eee06253884848460405161296793929190614a10565b60405180910390a17fcf4d4f3dcd5294f4d19269f489155c2187699f4a9fb9004b6a303752b00b282f848260020160149054906101000a900460ff166040516129b1929190613f5b565b60405180910390a150505050565b60606000600760008481526020019081526020016000206000015403612a1a576040517f08c379a0000000000000000000000000000000000000000000000000000000008152600401612a1190613e2e565b60405180910390fd5b600a6000838152602001908152602001600020805480602002602001604051908101604052809291908181526020016000905b82821015612b365783829060005260206000209060030201604051806060016040529081600082018054612a8090613fb3565b80601f0160208091040260200160405190810160405280929190818152602001828054612aac90613fb3565b8015612af95780601f10612ace57610100808354040283529160200191612af9565b820191906000526020600020905b815481529060010190602001808311612adc57829003601f168201915b505050505081526020016001820160009054906101000a900460ff1615151515815260200160028201548152505081526020019060010190612a4d565b505050509050919050565b60016020528060005260406000206000915054906101000a900460ff1681565b60008054906101000a900473ffffffffffffffffffffffffffffffffffffffff1681565b60008054906101000a900473ffffffffffffffffffffffffffffffffffffffff1673ffffffffffffffffffffffffffffffffffffffff163373ffffffffffffffffffffffffffffffffffffffff1614612c13576040517f08c379a0000000000000000000000000000000000000000000000000000000008152600401612c0a90613b14565b60405180910390fd5b600073ffffffffffffffffffffffffffffffffffffffff168173ffffffffffffffffffffffffffffffffffffffff1603612c82576040517f08c379a0000000000000000000000000000000000000000000000000000000008152600401612c7990613c7e565b60405180910390fd5b6001600360008373ffffffffffffffffffffffffffffffffffffffff1673ffffffffffffffffffffffffffffffffffffffff16815260200190815260200160002060006101000a81548160ff0219169083151502179055508073ffffffffffffffffffffffffffffffffffffffff167fb710f7d3e79cb091613cfea70444ea824ad23f2b1297bdea427bc6f097e346a8604051612d1e90613b80565b60405180910390a250565b6000806006811115612d3e57612d3d613280565b5b836006811115612d5157612d50613280565b5b03612d855760016006811115612d6a57612d69613280565b5b826006811115612d7d57612d7c613280565b5b149050612f24565b60016006811115612d9957612d98613280565b5b836006811115612dac57612dab613280565b5b03612e0f5760026006811115612dc557612dc4613280565b5b826006811115612dd857612dd7613280565b5b1480612e08575060036006811115612df357612df2613280565b5b826006811115612e0657612e05613280565b5b145b9050612f24565b60026006811115612e2357612e22613280565b5b836006811115612e3657612e35613280565b5b03612e6a5760046006811115612e4f57612e4e613280565b5b826006811115612e6257612e61613280565b5b149050612f24565b60046006811115612e7e57612e7d613280565b5b836006811115612e9157612e90613280565b5b03612ec55760056006811115612eaa57612ea9613280565b5b826006811115612ebd57612ebc613280565b5b149050612f24565b60056006811115612ed957612ed8613280565b5b836006811115612eec57612eeb613280565b5b03612f1f57600680811115612f0457612f03613280565b5b826006811115612f1757612f16613280565b5b149050612f24565b600090505b92915050565b600080600160008573ffffffffffffffffffffffffffffffffffffffff1673ffffffffffffffffffffffffffffffffffffffff16815260200190815260200160002060009054906101000a900460ff1690506000600260008573ffffffffffffffffffffffffffffffffffffffff1673ffffffffffffffffffffffffffffffffffffffff16815260200190815260200160002060009054906101000a900460ff1690506000600260008773ffffffffffffffffffffffffffffffffffffffff1673ffffffffffffffffffffffffffffffffffffffff16815260200190815260200160002060009054906101000a900460ff1690506000600360008773ffffffffffffffffffffffffffffffffffffffff1673ffffffffffffffffffffffffffffffffffffffff16815260200190815260200160002060009054906101000a900460ff1690508380156130795750825b8061308a57508180156130895750805b5b94505050505092915050565b6040518060a001604052806000815260200160608152602001600073ffffffffffffffffffffffffffffffffffffffff168152602001600060068111156130e0576130df613280565b5b8152602001606081525090565b6000604051905090565b600080fd5b600080fd5b600073ffffffffffffffffffffffffffffffffffffffff82169050919050565b600061312c82613101565b9050919050565b61313c81613121565b811461314757600080fd5b50565b60008135905061315981613133565b92915050565b600060208284031215613175576131746130f7565b5b60006131838482850161314a565b91505092915050565b6000819050919050565b61319f8161318c565b81146131aa57600080fd5b50565b6000813590506131bc81613196565b92915050565b600781106131cf57600080fd5b50565b6000813590506131e1816131c2565b92915050565b600080604083850312156131fe576131fd6130f7565b5b600061320c858286016131ad565b925050602061321d858286016131d2565b9150509250929050565b60006020828403121561323d5761323c6130f7565b5b600061324b848285016131ad565b91505092915050565b600081519050919050565b600082825260208201905092915050565b6000819050602082019050919050565b7f4e487b7100000000000000000000000000000000000000000000000000000000600052602160045260246000fd5b600781106132c0576132bf613280565b5b50565b60008190506132d1826132af565b919050565b60006132e1826132c3565b9050919050565b6132f1816132d6565b82525050565b6133008161318c565b82525050565b60408201600082015161331c60008501826132e8565b50602082015161332f60208501826132f7565b50505050565b60006133418383613306565b60408301905092915050565b6000602082019050919050565b600061336582613254565b61336f818561325f565b935061337a83613270565b8060005b838110156133ab5781516133928882613335565b975061339d8361334d565b92505060018101905061337e565b5085935050505092915050565b600060208201905081810360008301526133d2818461335a565b905092915050565b600081519050919050565b600082825260208201905092915050565b60005b838110156134145780820151818401526020810190506133f9565b60008484015250505050565b6000601f19601f8301169050919050565b600061343c826133da565b61344681856133e5565b93506134568185602086016133f6565b61345f81613420565b840191505092915050565b61347381613121565b82525050565b600060a08301600083015161349160008601826132f7565b50602083015184820360208601526134a98282613431565b91505060408301516134be604086018261346a565b5060608301516134d160608601826132e8565b50608083015184820360808601526134e98282613431565b9150508091505092915050565b600060208201905081810360008301526135108184613479565b905092915050565b60008115159050919050565b61352d81613518565b82525050565b60006020820190506135486000830184613524565b92915050565b60008060408385031215613565576135646130f7565b5b6000613573858286016131ad565b92505060206135848582860161314a565b9150509250929050565b61359781613518565b81146135a257600080fd5b50565b6000813590506135b48161358e565b92915050565b600080604083850312156135d1576135d06130f7565b5b60006135df858286016131ad565b92505060206135f0858286016135a5565b9150509250929050565b600081519050919050565b600082825260208201905092915050565b6000819050602082019050919050565b60608201600082015161363c600085018261346a565b50602082015161364f602085018261346a565b50604082015161366260408501826132f7565b50505050565b60006136748383613626565b60608301905092915050565b6000602082019050919050565b6000613698826135fa565b6136a28185613605565b93506136ad83613616565b8060005b838110156136de5781516136c58882613668565b97506136d083613680565b9250506001810190506136b1565b5085935050505092915050565b60006020820190508181036000830152613705818461368d565b905092915050565b600080fd5b600080fd5b7f4e487b7100000000000000000000000000000000000000000000000000000000600052604160045260246000fd5b61374f82613420565b810181811067ffffffffffffffff8211171561376e5761376d613717565b5b80604052505050565b60006137816130ed565b905061378d8282613746565b919050565b600067ffffffffffffffff8211156137ad576137ac613717565b5b6137b682613420565b9050602081019050919050565b82818337600083830152505050565b60006137e56137e084613792565b613777565b90508281526020810184848401111561380157613800613712565b5b61380c8482856137c3565b509392505050565b600082601f8301126138295761382861370d565b5b81356138398482602086016137d2565b91505092915050565b600060208284031215613858576138576130f7565b5b600082013567ffffffffffffffff811115613876576138756130fc565b5b61388284828501613814565b91505092915050565b6138948161318c565b82525050565b60006020820190506138af600083018461388b565b92915050565b6000806000606084860312156138ce576138cd6130f7565b5b60006138dc868287016131ad565b935050602084013567ffffffffffffffff8111156138fd576138fc6130fc565b5b61390986828701613814565b925050604061391a868287016135a5565b9150509250925092565b600081519050919050565b600082825260208201905092915050565b6000819050602082019050919050565b61395981613518565b82525050565b6000606083016000830151848203600086015261397c8282613431565b91505060208301516139916020860182613950565b5060408301516139a460408601826132f7565b508091505092915050565b60006139bb838361395f565b905092915050565b6000602082019050919050565b60006139db82613924565b6139e5818561392f565b9350836020820285016139f785613940565b8060005b85811015613a335784840389528151613a1485826139af565b9450613a1f836139c3565b925060208a019950506001810190506139fb565b50829750879550505050505092915050565b60006020820190508181036000830152613a5f81846139d0565b905092915050565b613a7081613121565b82525050565b6000602082019050613a8b6000830184613a67565b92915050565b600082825260208201905092915050565b7f4f6e6c792061646d696e2063616e20706572666f726d2074686973206163746960008201527f6f6e000000000000000000000000000000000000000000000000000000000000602082015250565b6000613afe602283613a91565b9150613b0982613aa2565b604082019050919050565b60006020820190508181036000830152613b2d81613af1565b9050919050565b7f52657461696c6572000000000000000000000000000000000000000000000000600082015250565b6000613b6a600883613a91565b9150613b7582613b34565b602082019050919050565b60006020820190508181036000830152613b9981613b5d565b9050919050565b7f4469737472696275746f72000000000000000000000000000000000000000000600082015250565b6000613bd6600b83613a91565b9150613be182613ba0565b602082019050919050565b60006020820190508181036000830152613c0581613bc9565b9050919050565b7f43616e6e6f74206772616e7420726f6c6520746f207a65726f2061646472657360008201527f7300000000000000000000000000000000000000000000000000000000000000602082015250565b6000613c68602183613a91565b9150613c7382613c0c565b604082019050919050565b60006020820190508181036000830152613c9781613c5b565b9050919050565b7f50726f6475636572000000000000000000000000000000000000000000000000600082015250565b6000613cd4600883613a91565b9150613cdf82613c9e565b602082019050919050565b60006020820190508181036000830152613d0381613cc7565b9050919050565b7f48616c616c20417574686f726974790000000000000000000000000000000000600082015250565b6000613d40600f83613a91565b9150613d4b82613d0a565b602082019050919050565b60006020820190508181036000830152613d6f81613d33565b9050919050565b7f536c61756768746572686f757365000000000000000000000000000000000000600082015250565b6000613dac600e83613a91565b9150613db782613d76565b602082019050919050565b60006020820190508181036000830152613ddb81613d9f565b9050919050565b7f426174636820646f6573206e6f74206578697374000000000000000000000000600082015250565b6000613e18601483613a91565b9150613e2382613de2565b602082019050919050565b60006020820190508181036000830152613e4781613e0b565b9050919050565b7f4f6e6c792063757272656e74206f776e65722063616e2075706461746520737460008201527f6174757300000000000000000000000000000000000000000000000000000000602082015250565b6000613eaa602483613a91565b9150613eb582613e4e565b604082019050919050565b60006020820190508181036000830152613ed981613e9d565b9050919050565b7f496e76616c696420737461747573207472616e736974696f6e00000000000000600082015250565b6000613f16601983613a91565b9150613f2182613ee0565b602082019050919050565b60006020820190508181036000830152613f4581613f09565b9050919050565b613f55816132d6565b82525050565b6000604082019050613f70600083018561388b565b613f7d6020830184613f4c565b9392505050565b7f4e487b7100000000000000000000000000000000000000000000000000000000600052602260045260246000fd5b60006002820490506001821680613fcb57607f821691505b602082108103613fde57613fdd613f84565b5b50919050565b7f4f6e6c7920736c61756768746572686f7573652063616e20706572666f726d2060008201527f7468697320616374696f6e000000000000000000000000000000000000000000602082015250565b6000614040602b83613a91565b915061404b82613fe4565b604082019050919050565b6000602082019050818103600083015261406f81614033565b9050919050565b7f426174636820616c72656164792070726f636573736564000000000000000000600082015250565b60006140ac601783613a91565b91506140b782614076565b602082019050919050565b600060208201905081810360008301526140db8161409f565b9050919050565b7f4f6e6c792063757272656e74206f776e65722063616e207472616e7366657200600082015250565b6000614118601f83613a91565b9150614123826140e2565b602082019050919050565b600060208201905081810360008301526141478161410b565b9050919050565b7f43616e6e6f74207472616e7366657220746f207a65726f206164647265737300600082015250565b6000614184601f83613a91565b915061418f8261414e565b602082019050919050565b600060208201905081810360008301526141b381614177565b9050919050565b7f43616e6e6f74207472616e73666572206e6f6e2d68616c616c20626174636800600082015250565b60006141f0601f83613a91565b91506141fb826141ba565b602082019050919050565b6000602082019050818103600083015261421f816141e3565b9050919050565b7f496e76616c6964207472616e7366657200000000000000000000000000000000600082015250565b600061425c601083613a91565b915061426782614226565b602082019050919050565b6000602082019050818103600083015261428b8161424f565b9050919050565b60006060820190506142a7600083018661388b565b6142b46020830185613a67565b6142c16040830184613a67565b949350505050565b7f4f6e6c792068616c616c20617574686f726974792063616e20706572666f726d60008201527f207468697320616374696f6e0000000000000000000000000000000000000000602082015250565b6000614325602c83613a91565b9150614330826142c9565b604082019050919050565b6000602082019050818103600083015261435481614318565b9050919050565b7f4261746368206973206e6f7420726561647920666f722063657274696669636160008201527f74696f6e00000000000000000000000000000000000000000000000000000000602082015250565b60006143b7602483613a91565b91506143c28261435b565b604082019050919050565b600060208201905081810360008301526143e6816143aa565b9050919050565b60008190508160005260206000209050919050565b60006020601f8301049050919050565b600082821b905092915050565b60006008830261444f7fffffffffffffffffffffffffffffffffffffffffffffffffffffffffffffffff82614412565b6144598683614412565b95508019841693508086168417925050509392505050565b6000819050919050565b600061449661449161448c8461318c565b614471565b61318c565b9050919050565b6000819050919050565b6144b08361447b565b6144c46144bc8261449d565b84845461441f565b825550505050565b600090565b6144d96144cc565b6144e48184846144a7565b505050565b5b81811015614508576144fd6000826144d1565b6001810190506144ea565b5050565b601f82111561454d5761451e816143ed565b61452784614402565b81016020851015614536578190505b61454a61454285614402565b8301826144e9565b50505b505050565b600082821c905092915050565b600061457060001984600802614552565b1980831691505092915050565b6000614589838361455f565b9150826002028217905092915050565b6145a2826133da565b67ffffffffffffffff8111156145bb576145ba613717565b5b6145c58254613fb3565b6145d082828561450c565b600060209050601f83116001811461460357600084156145f1578287015190505b6145fb858261457d565b865550614663565b601f198416614611866143ed565b60005b8281101561463957848901518255600182019150602085019450602081019050614614565b868310156146565784890151614652601f89168261455f565b8355505b6001600288020188555050505b505050505050565b6000604082019050614680600083018561388b565b61468d6020830184613524565b9392505050565b7f4f6e6c792070726f64756365722063616e20706572666f726d2074686973206160008201527f6374696f6e000000000000000000000000000000000000000000000000000000602082015250565b60006146f0602583613a91565b91506146fb82614694565b604082019050919050565b6000602082019050818103600083015261471f816146e3565b9050919050565b7f4e616d652063616e6e6f7420626520656d707479000000000000000000000000600082015250565b600061475c601483613a91565b915061476782614726565b602082019050919050565b6000602082019050818103600083015261478b8161474f565b9050919050565b7f4e487b7100000000000000000000000000000000000000000000000000000000600052601160045260246000fd5b60006147cc8261318c565b91507fffffffffffffffffffffffffffffffffffffffffffffffffffffffffffffffff82036147fe576147fd614792565b5b600182019050919050565b6000614814826133da565b61481e8185613a91565b935061482e8185602086016133f6565b61483781613420565b840191505092915050565b6000606082019050614857600083018661388b565b81810360208301526148698185614809565b90506148786040830184613a67565b949350505050565b7f426174636820737461747573206d75737420626520437265617465642062656660008201527f6f726520736c6175676874657200000000000000000000000000000000000000602082015250565b60006148dc602d83613a91565b91506148e782614880565b604082019050919050565b6000602082019050818103600083015261490b816148cf565b9050919050565b7f4261746368206973206e6f742070656e64696e6720636572746966696361746960008201527f6f6e000000000000000000000000000000000000000000000000000000000000602082015250565b600061496e602283613a91565b915061497982614912565b604082019050919050565b6000602082019050818103600083015261499d81614961565b9050919050565b7f436572746966696361746520686173682063616e6e6f7420626520656d707479600082015250565b60006149da602083613a91565b91506149e5826149a4565b602082019050919050565b60006020820190508181036000830152614a09816149cd565b9050919050565b6000606082019050614a25600083018661388b565b8181036020830152614a378185614809565b9050614a466040830184613524565b94935050505056fea264697066735822122038cf9c4381260b1efe907ca159a6dbb718ef5e4f0e58cf2514da998785a1081f64736f6c634300081c0033",
  "linkReferences": {},
  "deployedLinkReferences": {}
}